{
  "contractName": "Marketplace",
  "abi": [
    {
      "anonymous": false,
      "inputs": [
        {
          "indexed": false,
          "internalType": "contract MockNFT",
          "name": "collection",
          "type": "address"
        },
        {
          "indexed": false,
          "internalType": "uint256",
          "name": "tokenId",
          "type": "uint256"
        },
        {
          "indexed": false,
          "internalType": "address",
          "name": "creator",
          "type": "address"
        }
      ],
      "name": "AuctionCancelled",
      "type": "event"
    },
    {
      "anonymous": false,
      "inputs": [
        {
          "indexed": false,
          "internalType": "contract MockNFT",
          "name": "collection",
          "type": "address"
        },
        {
          "indexed": false,
          "internalType": "uint256",
          "name": "tokenId",
          "type": "uint256"
        },
        {
          "indexed": false,
          "internalType": "uint256",
          "name": "startPrice",
          "type": "uint256"
        },
        {
          "indexed": false,
          "internalType": "uint256",
          "name": "auctionTimeSeconds",
          "type": "uint256"
        },
        {
          "indexed": false,
          "internalType": "address",
          "name": "creator",
          "type": "address"
        }
      ],
      "name": "AuctionCreated",
      "type": "event"
    },
    {
      "anonymous": false,
      "inputs": [
        {
          "indexed": false,
          "internalType": "contract MockNFT",
          "name": "collection",
          "type": "address"
        },
        {
          "indexed": false,
          "internalType": "uint256",
          "name": "tokenId",
          "type": "uint256"
        },
        {
          "indexed": false,
          "internalType": "address",
          "name": "winner",
          "type": "address"
        },
        {
          "indexed": false,
          "internalType": "uint256",
          "name": "winningBid",
          "type": "uint256"
        }
      ],
      "name": "AuctionWon",
      "type": "event"
    },
    {
      "anonymous": false,
      "inputs": [
        {
          "indexed": false,
          "internalType": "contract MockNFT",
          "name": "collection",
          "type": "address"
        },
        {
          "indexed": false,
          "internalType": "uint256",
          "name": "tokenId",
          "type": "uint256"
        },
        {
          "indexed": false,
          "internalType": "address",
          "name": "bidder",
          "type": "address"
        },
        {
          "indexed": false,
          "internalType": "uint256",
          "name": "bid",
          "type": "uint256"
        }
      ],
      "name": "BidPlaced",
      "type": "event"
    },
    {
      "anonymous": false,
      "inputs": [
        {
          "indexed": false,
          "internalType": "contract MockNFT",
          "name": "collection",
          "type": "address"
        },
        {
          "indexed": false,
          "internalType": "uint256",
          "name": "tokenId",
          "type": "uint256"
        },
        {
          "indexed": false,
          "internalType": "address",
          "name": "bidder",
          "type": "address"
        },
        {
          "indexed": false,
          "internalType": "uint256",
          "name": "bid",
          "type": "uint256"
        }
      ],
      "name": "BidReturned",
      "type": "event"
    },
    {
      "anonymous": false,
      "inputs": [
        {
          "indexed": false,
          "internalType": "contract MockNFT",
          "name": "collection",
          "type": "address"
        },
        {
          "indexed": false,
          "internalType": "uint256",
          "name": "fee",
          "type": "uint256"
        }
      ],
      "name": "CollectionFeeSet",
      "type": "event"
    },
    {
      "anonymous": false,
      "inputs": [
        {
          "indexed": false,
          "internalType": "contract MockNFT",
          "name": "collection",
          "type": "address"
        }
      ],
      "name": "CollectionRegistered",
      "type": "event"
    },
    {
      "anonymous": false,
      "inputs": [
        {
          "indexed": false,
          "internalType": "contract MockNFT",
          "name": "collection",
          "type": "address"
        },
        {
          "indexed": false,
          "internalType": "uint256",
          "name": "tokenId",
          "type": "uint256"
        },
        {
          "indexed": false,
          "internalType": "uint256",
          "name": "flatFee",
          "type": "uint256"
        },
        {
          "indexed": false,
          "internalType": "address",
          "name": "payer",
          "type": "address"
        }
      ],
      "name": "FlatFeePaid",
      "type": "event"
    },
    {
      "anonymous": false,
      "inputs": [
        {
          "indexed": false,
          "internalType": "uint256",
          "name": "flatFee",
          "type": "uint256"
        }
      ],
      "name": "FlatFeeSet",
      "type": "event"
    },
    {
      "anonymous": false,
      "inputs": [
        {
          "indexed": false,
          "internalType": "contract MockNFT",
          "name": "collection",
          "type": "address"
        },
        {
          "indexed": false,
          "internalType": "uint256",
          "name": "tokenId",
          "type": "uint256"
        },
        {
          "indexed": false,
          "internalType": "address",
          "name": "owner",
          "type": "address"
        },
        {
          "indexed": false,
          "internalType": "uint256",
          "name": "payout",
          "type": "uint256"
        }
      ],
      "name": "OwnerPaid",
      "type": "event"
    },
    {
      "anonymous": false,
      "inputs": [
        {
          "indexed": true,
          "internalType": "address",
          "name": "previousOwner",
          "type": "address"
        },
        {
          "indexed": true,
          "internalType": "address",
          "name": "newOwner",
          "type": "address"
        }
      ],
      "name": "OwnershipTransferred",
      "type": "event"
    },
    {
      "inputs": [],
      "name": "owner",
      "outputs": [
        {
          "internalType": "address",
          "name": "",
          "type": "address"
        }
      ],
      "stateMutability": "view",
      "type": "function",
      "constant": true
    },
    {
      "inputs": [],
      "name": "renounceOwnership",
      "outputs": [],
      "stateMutability": "nonpayable",
      "type": "function"
    },
    {
      "inputs": [
        {
          "internalType": "address",
          "name": "newOwner",
          "type": "address"
        }
      ],
      "name": "transferOwnership",
      "outputs": [],
      "stateMutability": "nonpayable",
      "type": "function"
    },
    {
      "inputs": [
        {
          "internalType": "contract MockNFT",
          "name": "collection",
          "type": "address"
        },
        {
          "internalType": "uint256",
          "name": "fee",
          "type": "uint256"
        }
      ],
      "name": "registerCollection",
      "outputs": [],
      "stateMutability": "nonpayable",
      "type": "function"
    },
    {
      "inputs": [
        {
          "internalType": "contract MockNFT",
          "name": "collection",
          "type": "address"
        }
      ],
      "name": "collectionRegistered",
      "outputs": [
        {
          "internalType": "bool",
          "name": "",
          "type": "bool"
        }
      ],
      "stateMutability": "view",
      "type": "function",
      "constant": true
    },
    {
      "inputs": [
        {
          "internalType": "contract MockNFT",
          "name": "collection",
          "type": "address"
        },
        {
          "internalType": "uint256",
          "name": "fee",
          "type": "uint256"
        }
      ],
      "name": "setCollectionFee",
      "outputs": [],
      "stateMutability": "nonpayable",
      "type": "function"
    },
    {
      "inputs": [
        {
          "internalType": "contract MockNFT",
          "name": "collection",
          "type": "address"
        }
      ],
      "name": "getCollectionFee",
      "outputs": [
        {
          "internalType": "uint256",
          "name": "",
          "type": "uint256"
        }
      ],
      "stateMutability": "view",
      "type": "function",
      "constant": true
    },
    {
      "inputs": [
        {
          "internalType": "uint256",
          "name": "flatFee",
          "type": "uint256"
        }
      ],
      "name": "setFlatListingFee",
      "outputs": [],
      "stateMutability": "nonpayable",
      "type": "function"
    },
    {
      "inputs": [],
      "name": "getFlatListngFee",
      "outputs": [
        {
          "internalType": "uint256",
          "name": "",
          "type": "uint256"
        }
      ],
      "stateMutability": "view",
      "type": "function",
      "constant": true
    },
    {
      "inputs": [
        {
          "internalType": "contract MockNFT",
          "name": "collection",
          "type": "address"
        },
        {
          "internalType": "uint256",
          "name": "tokenId",
          "type": "uint256"
        },
        {
          "internalType": "uint256",
          "name": "startPrice",
          "type": "uint256"
        },
        {
          "internalType": "uint256",
          "name": "auctionTimeSeconds",
          "type": "uint256"
        }
      ],
      "name": "openAuction",
      "outputs": [],
      "stateMutability": "payable",
      "type": "function",
      "payable": true
    },
    {
      "inputs": [
        {
          "internalType": "contract MockNFT",
          "name": "collection",
          "type": "address"
        },
        {
          "internalType": "uint256",
          "name": "tokenId",
          "type": "uint256"
        }
      ],
      "name": "auctionOpened",
      "outputs": [
        {
          "internalType": "bool",
          "name": "",
          "type": "bool"
        }
      ],
      "stateMutability": "view",
      "type": "function",
      "constant": true
    },
    {
      "inputs": [
        {
          "internalType": "contract MockNFT",
          "name": "collection",
          "type": "address"
        },
        {
          "internalType": "uint256",
          "name": "tokenId",
          "type": "uint256"
        }
      ],
      "name": "getCurrentBid",
      "outputs": [
        {
          "internalType": "uint256",
          "name": "",
          "type": "uint256"
        }
      ],
      "stateMutability": "view",
      "type": "function",
      "constant": true
    },
    {
      "inputs": [
        {
          "internalType": "contract MockNFT",
          "name": "collection",
          "type": "address"
        },
        {
          "internalType": "uint256",
          "name": "tokenId",
          "type": "uint256"
        }
      ],
      "name": "getMinimalBid",
      "outputs": [
        {
          "internalType": "uint256",
          "name": "",
          "type": "uint256"
        }
      ],
      "stateMutability": "view",
      "type": "function",
      "constant": true
    },
    {
      "inputs": [
        {
          "internalType": "contract MockNFT",
          "name": "collection",
          "type": "address"
        },
        {
          "internalType": "uint256",
          "name": "tokenId",
          "type": "uint256"
        }
      ],
      "name": "getAuctionBid",
      "outputs": [
        {
          "internalType": "uint256",
          "name": "",
          "type": "uint256"
        }
      ],
      "stateMutability": "view",
      "type": "function",
      "constant": true
    },
    {
      "inputs": [
        {
          "internalType": "contract MockNFT",
          "name": "collection",
          "type": "address"
        },
        {
          "internalType": "uint256",
          "name": "tokenId",
          "type": "uint256"
        }
      ],
      "name": "getAuction",
      "outputs": [
        {
          "internalType": "uint256",
          "name": "started",
          "type": "uint256"
        },
        {
          "internalType": "uint256",
          "name": "ends",
          "type": "uint256"
        },
        {
          "internalType": "uint256",
          "name": "startPrice",
          "type": "uint256"
        },
        {
          "internalType": "address",
          "name": "bidder",
          "type": "address"
        },
        {
          "internalType": "uint256",
          "name": "bidderValue",
          "type": "uint256"
        }
      ],
      "stateMutability": "view",
      "type": "function",
      "constant": true
    },
    {
      "inputs": [
        {
          "internalType": "contract MockNFT",
          "name": "collection",
          "type": "address"
        },
        {
          "internalType": "uint256",
          "name": "tokenId",
          "type": "uint256"
        }
      ],
      "name": "cancelAuction",
      "outputs": [],
      "stateMutability": "nonpayable",
      "type": "function"
    },
    {
      "inputs": [
        {
          "internalType": "contract MockNFT",
          "name": "collection",
          "type": "address"
        },
        {
          "internalType": "uint256",
          "name": "tokenId",
          "type": "uint256"
        }
      ],
      "name": "placeBid",
      "outputs": [],
      "stateMutability": "payable",
      "type": "function",
      "payable": true
    },
    {
      "inputs": [
        {
          "internalType": "contract MockNFT",
          "name": "collection",
          "type": "address"
        },
        {
          "internalType": "uint256",
          "name": "tokenId",
          "type": "uint256"
        }
      ],
      "name": "claimReward",
      "outputs": [],
      "stateMutability": "payable",
      "type": "function",
      "payable": true
    }
  ],
  "bytecode": "0x60806040526103e86002553480156200001757600080fd5b50620000386200002c6200003e60201b60201c565b6200004660201b60201c565b6200010a565b600033905090565b60008060009054906101000a900473ffffffffffffffffffffffffffffffffffffffff169050816000806101000a81548173ffffffffffffffffffffffffffffffffffffffff021916908373ffffffffffffffffffffffffffffffffffffffff1602179055508173ffffffffffffffffffffffffffffffffffffffff168173ffffffffffffffffffffffffffffffffffffffff167f8be0079c531659141344cd1fd0a4f28419497f9722a3daafe3b4186f6b6457e060405160405180910390a35050565b61372e806200011a6000396000f3fe6080604052600436106101095760003560e01c80638da5cb5b11610095578063b84655ad11610064578063b84655ad14610361578063d98b9bb51461038c578063e35ed75a146103a8578063f0c2dd89146103e5578063f2fde38b1461042257610109565b80638da5cb5b14610293578063a1b8ddb8146102be578063ae934ef3146102fb578063b3a4f97b1461032457610109565b806343205223116100dc57806343205223146101c05780634aa2fd4b146101e9578063715018a614610212578063762a66a214610229578063859b97fe1461026a57610109565b806310a810921461010e578063174e31c41461014b57806320755f2f1461016757806339a93ca114610183575b600080fd5b34801561011a57600080fd5b506101356004803603810190610130919061272a565b61044b565b6040516101429190612779565b60405180910390f35b6101656004803603810190610160919061272a565b610617565b005b610181600480360381019061017c9190612794565b610c47565b005b34801561018f57600080fd5b506101aa60048036038101906101a5919061272a565b6111e4565b6040516101b79190612779565b60405180910390f35b3480156101cc57600080fd5b506101e760048036038101906101e2919061272a565b61128e565b005b3480156101f557600080fd5b50610210600480360381019061020b919061272a565b611463565b005b34801561021e57600080fd5b50610227611687565b005b34801561023557600080fd5b50610250600480360381019061024b919061272a565b61170f565b60405161026195949392919061281c565b60405180910390f35b34801561027657600080fd5b50610291600480360381019061028c919061272a565b6118ce565b005b34801561029f57600080fd5b506102a8611cc9565b6040516102b5919061286f565b60405180910390f35b3480156102ca57600080fd5b506102e560048036038101906102e0919061272a565b611cf2565b6040516102f291906128a5565b60405180910390f35b34801561030757600080fd5b50610322600480360381019061031d91906128c0565b611d55565b005b34801561033057600080fd5b5061034b600480360381019061034691906128ed565b611e12565b6040516103589190612779565b60405180910390f35b34801561036d57600080fd5b50610376611ee5565b6040516103839190612779565b60405180910390f35b6103a660048036038101906103a1919061272a565b611eef565b005b3480156103b457600080fd5b506103cf60048036038101906103ca919061272a565b6123c3565b6040516103dc9190612779565b60405180910390f35b3480156103f157600080fd5b5061040c600480360381019061040791906128ed565b61246d565b60405161041991906128a5565b60405180910390f35b34801561042e57600080fd5b5061044960048036038101906104449190612946565b6124bb565b005b60006104578383611cf2565b610496576040517f08c379a000000000000000000000000000000000000000000000000000000000815260040161048d906129d0565b60405180910390fd5b6000600160008573ffffffffffffffffffffffffffffffffffffffff1673ffffffffffffffffffffffffffffffffffffffff16815260200190815260200160002060020160008481526020019081526020016000206040518060e0016040529081600082015481526020016001820160009054906101000a900473ffffffffffffffffffffffffffffffffffffffff1673ffffffffffffffffffffffffffffffffffffffff1673ffffffffffffffffffffffffffffffffffffffff1681526020016002820154815260200160038201548152602001600482015481526020016005820160009054906101000a900473ffffffffffffffffffffffffffffffffffffffff1673ffffffffffffffffffffffffffffffffffffffff1673ffffffffffffffffffffffffffffffffffffffff168152602001600682015481525050905060008160800151905060008260c00151111561060c57600a8260c00151600b6105ff9190612a1f565b6106099190612aa8565b90505b809250505092915050565b6000600160008473ffffffffffffffffffffffffffffffffffffffff1673ffffffffffffffffffffffffffffffffffffffff16815260200190815260200160002060020160008381526020019081526020016000206040518060e0016040529081600082015481526020016001820160009054906101000a900473ffffffffffffffffffffffffffffffffffffffff1673ffffffffffffffffffffffffffffffffffffffff1673ffffffffffffffffffffffffffffffffffffffff1681526020016002820154815260200160038201548152602001600482015481526020016005820160009054906101000a900473ffffffffffffffffffffffffffffffffffffffff1673ffffffffffffffffffffffffffffffffffffffff1673ffffffffffffffffffffffffffffffffffffffff16815260200160068201548152505090508060600151421161079d576040517f08c379a000000000000000000000000000000000000000000000000000000000815260040161079490612b25565b60405180910390fd5b8060a0015173ffffffffffffffffffffffffffffffffffffffff163373ffffffffffffffffffffffffffffffffffffffff161461080f576040517f08c379a000000000000000000000000000000000000000000000000000000000815260040161080690612bb7565b60405180910390fd5b60006127108473ffffffffffffffffffffffffffffffffffffffff166333df048e6040518163ffffffff1660e01b8152600401602060405180830381865afa15801561085f573d6000803e3d6000fd5b505050506040513d601f19601f820116820180604052508101906108839190612c11565b61ffff168360c001516108969190612a1f565b6108a09190612aa8565b905060008473ffffffffffffffffffffffffffffffffffffffff16826040516108c890612c6f565b60006040518083038185875af1925050503d8060008114610905576040519150601f19603f3d011682016040523d82523d6000602084013e61090a565b606091505b505090508061094e576040517f08c379a000000000000000000000000000000000000000000000000000000000815260040161094590612cf6565b60405180910390fd5b6000612710600160008873ffffffffffffffffffffffffffffffffffffffff1673ffffffffffffffffffffffffffffffffffffffff168152602001908152602001600020600101548560c001516109a59190612a1f565b6109af9190612aa8565b9050600081848660c001516109c49190612d16565b6109ce9190612d16565b90506000856020015173ffffffffffffffffffffffffffffffffffffffff16826040516109fa90612c6f565b60006040518083038185875af1925050503d8060008114610a37576040519150601f19603f3d011682016040523d82523d6000602084013e610a3c565b606091505b5050905080610a80576040517f08c379a0000000000000000000000000000000000000000000000000000000008152600401610a7790612d96565b60405180910390fd5b7f3aa3d55dbe9b2898d85863c8e85e94e6c01c8de2af208103bac8a777c65f10b68888886020015185604051610ab99493929190612e15565b60405180910390a1600160008973ffffffffffffffffffffffffffffffffffffffff1673ffffffffffffffffffffffffffffffffffffffff16815260200190815260200160002060020160008881526020019081526020016000206000808201600090556001820160006101000a81549073ffffffffffffffffffffffffffffffffffffffff02191690556002820160009055600382016000905560048201600090556005820160006101000a81549073ffffffffffffffffffffffffffffffffffffffff0219169055600682016000905550508773ffffffffffffffffffffffffffffffffffffffff166323b872dd30338a6040518463ffffffff1660e01b8152600401610bca93929190612e5a565b600060405180830381600087803b158015610be457600080fd5b505af1158015610bf8573d6000803e3d6000fd5b505050507f57897076b3b4da1e5b44291d2afa77158945c16a6bb3033421ebd9331d0c6fe48888338960c00151604051610c359493929190612e15565b60405180910390a15050505050505050565b836000600160008373ffffffffffffffffffffffffffffffffffffffff1673ffffffffffffffffffffffffffffffffffffffff1681526020019081526020016000206001015411610ccd576040517f08c379a0000000000000000000000000000000000000000000000000000000008152600401610cc490612edd565b60405180910390fd5b3373ffffffffffffffffffffffffffffffffffffffff168573ffffffffffffffffffffffffffffffffffffffff16636352211e866040518263ffffffff1660e01b8152600401610d1d9190612779565b602060405180830381865afa158015610d3a573d6000803e3d6000fd5b505050506040513d601f19601f82011682018060405250810190610d5e9190612f12565b73ffffffffffffffffffffffffffffffffffffffff1614610db4576040517f08c379a0000000000000000000000000000000000000000000000000000000008152600401610dab90612f8b565b60405180910390fd5b8473ffffffffffffffffffffffffffffffffffffffff1663e985e9c533306040518363ffffffff1660e01b8152600401610def929190612fab565b602060405180830381865afa158015610e0c573d6000803e3d6000fd5b505050506040513d601f19601f82011682018060405250810190610e309190613000565b610e6f576040517f08c379a0000000000000000000000000000000000000000000000000000000008152600401610e669061309f565b60405180910390fd5b600254341015610eb4576040517f08c379a0000000000000000000000000000000000000000000000000000000008152600401610eab90613131565b60405180910390fd5b6040518060e001604052808581526020013373ffffffffffffffffffffffffffffffffffffffff1681526020014281526020018342610ef39190613151565b8152602001848152602001600073ffffffffffffffffffffffffffffffffffffffff1681526020016000815250600160008773ffffffffffffffffffffffffffffffffffffffff1673ffffffffffffffffffffffffffffffffffffffff16815260200190815260200160002060020160008681526020019081526020016000206000820151816000015560208201518160010160006101000a81548173ffffffffffffffffffffffffffffffffffffffff021916908373ffffffffffffffffffffffffffffffffffffffff16021790555060408201518160020155606082015181600301556080820151816004015560a08201518160050160006101000a81548173ffffffffffffffffffffffffffffffffffffffff021916908373ffffffffffffffffffffffffffffffffffffffff16021790555060c0820151816006015590505060003373ffffffffffffffffffffffffffffffffffffffff166002543461105d9190612d16565b60405161106990612c6f565b60006040518083038185875af1925050503d80600081146110a6576040519150601f19603f3d011682016040523d82523d6000602084013e6110ab565b606091505b50509050806110ef576040517f08c379a00000000000000000000000000000000000000000000000000000000081526004016110e6906131f3565b60405180910390fd5b7f884636537ea8993a66e954236e0d9fc67074cc0de576a51646d989ef57fa47328686600254336040516111269493929190613213565b60405180910390a18573ffffffffffffffffffffffffffffffffffffffff166323b872dd3330886040518463ffffffff1660e01b815260040161116b93929190612e5a565b600060405180830381600087803b15801561118557600080fd5b505af1158015611199573d6000803e3d6000fd5b505050507f610ddcae48f15a18a61c6b1e963953013624de14fda7a1b3fcc95c3047ed455686868686336040516111d4959493929190613258565b60405180910390a1505050505050565b60006111f08383611cf2565b61122f576040517f08c379a0000000000000000000000000000000000000000000000000000000008152600401611226906129d0565b60405180910390fd5b600160008473ffffffffffffffffffffffffffffffffffffffff1673ffffffffffffffffffffffffffffffffffffffff168152602001908152602001600020600201600083815260200190815260200160002060060154905092915050565b6112966125b3565b73ffffffffffffffffffffffffffffffffffffffff166112b4611cc9565b73ffffffffffffffffffffffffffffffffffffffff161461130a576040517f08c379a0000000000000000000000000000000000000000000000000000000008152600401611301906132f7565b60405180910390fd5b8060008111801561131d57506101f48111155b61135c576040517f08c379a000000000000000000000000000000000000000000000000000000000815260040161135390613363565b60405180910390fd5b826000600160008673ffffffffffffffffffffffffffffffffffffffff1673ffffffffffffffffffffffffffffffffffffffff1681526020019081526020016000209050848160000160006101000a81548173ffffffffffffffffffffffffffffffffffffffff021916908373ffffffffffffffffffffffffffffffffffffffff1602179055508381600101819055507ffb99393fd31547f4a765604f2c2d122ce8ccb313edeef8b951130d8bcca866e98560405161141b9190613383565b60405180910390a17f1065c30e11477a157bfaaf02250a21b6431b94a22e4bd0420a094fa1fa703ae1858560405161145492919061339e565b60405180910390a15050505050565b61146b6125b3565b73ffffffffffffffffffffffffffffffffffffffff16611489611cc9565b73ffffffffffffffffffffffffffffffffffffffff16146114df576040517f08c379a00000000000000000000000000000000000000000000000000000000081526004016114d6906132f7565b60405180910390fd5b806000811180156114f257506101f48111155b611531576040517f08c379a000000000000000000000000000000000000000000000000000000000815260040161152890613363565b60405180910390fd5b826000600160008373ffffffffffffffffffffffffffffffffffffffff1673ffffffffffffffffffffffffffffffffffffffff16815260200190815260200160002060010154116115b7576040517f08c379a00000000000000000000000000000000000000000000000000000000081526004016115ae90612edd565b60405180910390fd5b82600160008673ffffffffffffffffffffffffffffffffffffffff1673ffffffffffffffffffffffffffffffffffffffff16815260200190815260200160002060010154146116815782600160008673ffffffffffffffffffffffffffffffffffffffff1673ffffffffffffffffffffffffffffffffffffffff168152602001908152602001600020600101819055507f1065c30e11477a157bfaaf02250a21b6431b94a22e4bd0420a094fa1fa703ae1848460405161167892919061339e565b60405180910390a15b50505050565b61168f6125b3565b73ffffffffffffffffffffffffffffffffffffffff166116ad611cc9565b73ffffffffffffffffffffffffffffffffffffffff1614611703576040517f08c379a00000000000000000000000000000000000000000000000000000000081526004016116fa906132f7565b60405180910390fd5b61170d60006125bb565b565b60008060008060006117218787611cf2565b611760576040517f08c379a0000000000000000000000000000000000000000000000000000000008152600401611757906129d0565b60405180910390fd5b6000600160008973ffffffffffffffffffffffffffffffffffffffff1673ffffffffffffffffffffffffffffffffffffffff16815260200190815260200160002060020160008881526020019081526020016000206040518060e0016040529081600082015481526020016001820160009054906101000a900473ffffffffffffffffffffffffffffffffffffffff1673ffffffffffffffffffffffffffffffffffffffff1673ffffffffffffffffffffffffffffffffffffffff1681526020016002820154815260200160038201548152602001600482015481526020016005820160009054906101000a900473ffffffffffffffffffffffffffffffffffffffff1673ffffffffffffffffffffffffffffffffffffffff1673ffffffffffffffffffffffffffffffffffffffff16815260200160068201548152505090508060400151955080606001519450806080015193508060a0015192508060c001519150509295509295909350565b816000600160008373ffffffffffffffffffffffffffffffffffffffff1673ffffffffffffffffffffffffffffffffffffffff1681526020019081526020016000206001015411611954576040517f08c379a000000000000000000000000000000000000000000000000000000000815260040161194b90612edd565b60405180910390fd5b6000600160008573ffffffffffffffffffffffffffffffffffffffff1673ffffffffffffffffffffffffffffffffffffffff16815260200190815260200160002060020160008481526020019081526020016000206040518060e0016040529081600082015481526020016001820160009054906101000a900473ffffffffffffffffffffffffffffffffffffffff1673ffffffffffffffffffffffffffffffffffffffff1673ffffffffffffffffffffffffffffffffffffffff1681526020016002820154815260200160038201548152602001600482015481526020016005820160009054906101000a900473ffffffffffffffffffffffffffffffffffffffff1673ffffffffffffffffffffffffffffffffffffffff1673ffffffffffffffffffffffffffffffffffffffff16815260200160068201548152505090503373ffffffffffffffffffffffffffffffffffffffff16816020015173ffffffffffffffffffffffffffffffffffffffff1614611b06576040517f08c379a0000000000000000000000000000000000000000000000000000000008152600401611afd90613439565b60405180910390fd5b60008160c0015114611b4d576040517f08c379a0000000000000000000000000000000000000000000000000000000008152600401611b44906134cb565b60405180910390fd5b600160008573ffffffffffffffffffffffffffffffffffffffff1673ffffffffffffffffffffffffffffffffffffffff16815260200190815260200160002060020160008481526020019081526020016000206000808201600090556001820160006101000a81549073ffffffffffffffffffffffffffffffffffffffff02191690556002820160009055600382016000905560048201600090556005820160006101000a81549073ffffffffffffffffffffffffffffffffffffffff0219169055600682016000905550508373ffffffffffffffffffffffffffffffffffffffff166323b872dd3033866040518463ffffffff1660e01b8152600401611c5693929190612e5a565b600060405180830381600087803b158015611c7057600080fd5b505af1158015611c84573d6000803e3d6000fd5b505050507f81ac9b9393c688a58e4829f289ada7a9a0ef6b193b25950986416ef84025becd848433604051611cbb939291906134eb565b60405180910390a150505050565b60008060009054906101000a900473ffffffffffffffffffffffffffffffffffffffff16905090565b600080600160008573ffffffffffffffffffffffffffffffffffffffff1673ffffffffffffffffffffffffffffffffffffffff16815260200190815260200160002060020160008481526020019081526020016000206004015411905092915050565b611d5d6125b3565b73ffffffffffffffffffffffffffffffffffffffff16611d7b611cc9565b73ffffffffffffffffffffffffffffffffffffffff1614611dd1576040517f08c379a0000000000000000000000000000000000000000000000000000000008152600401611dc8906132f7565b60405180910390fd5b806002819055507f02e6220a8c55d7fd57319e91a44a9aac5a5fd4c64a19bb34bb83c8cedbf3f39881604051611e079190612779565b60405180910390a150565b6000816000600160008373ffffffffffffffffffffffffffffffffffffffff1673ffffffffffffffffffffffffffffffffffffffff1681526020019081526020016000206001015411611e9a576040517f08c379a0000000000000000000000000000000000000000000000000000000008152600401611e9190612edd565b60405180910390fd5b600160008473ffffffffffffffffffffffffffffffffffffffff1673ffffffffffffffffffffffffffffffffffffffff16815260200190815260200160002060010154915050919050565b6000600254905090565b816000600160008373ffffffffffffffffffffffffffffffffffffffff1673ffffffffffffffffffffffffffffffffffffffff1681526020019081526020016000206001015411611f75576040517f08c379a0000000000000000000000000000000000000000000000000000000008152600401611f6c90612edd565b60405180910390fd5b6000600160008573ffffffffffffffffffffffffffffffffffffffff1673ffffffffffffffffffffffffffffffffffffffff16815260200190815260200160002060020160008481526020019081526020016000206040518060e0016040529081600082015481526020016001820160009054906101000a900473ffffffffffffffffffffffffffffffffffffffff1673ffffffffffffffffffffffffffffffffffffffff1673ffffffffffffffffffffffffffffffffffffffff1681526020016002820154815260200160038201548152602001600482015481526020016005820160009054906101000a900473ffffffffffffffffffffffffffffffffffffffff1673ffffffffffffffffffffffffffffffffffffffff1673ffffffffffffffffffffffffffffffffffffffff1681526020016006820154815250509050600081604001511180156120cc5750806060015142105b61210b576040517f08c379a00000000000000000000000000000000000000000000000000000000081526004016121029061356e565b60405180910390fd5b6000612117858561044b565b90508034101561215c576040517f08c379a0000000000000000000000000000000000000000000000000000000008152600401612153906135da565b60405180910390fd5b600073ffffffffffffffffffffffffffffffffffffffff168260a0015173ffffffffffffffffffffffffffffffffffffffff161461228f5760008260a0015173ffffffffffffffffffffffffffffffffffffffff168360c001516040516121c290612c6f565b60006040518083038185875af1925050503d80600081146121ff576040519150601f19603f3d011682016040523d82523d6000602084013e612204565b606091505b5050905080612248576040517f08c379a000000000000000000000000000000000000000000000000000000000815260040161223f90613646565b60405180910390fd5b7f1917148edb0bed70e68a7364213bb2eacbaecac176e6e1dbb68a3374748b3aed86868560a001518660c001516040516122859493929190612e15565b60405180910390a1505b33600160008773ffffffffffffffffffffffffffffffffffffffff1673ffffffffffffffffffffffffffffffffffffffff168152602001908152602001600020600201600086815260200190815260200160002060050160006101000a81548173ffffffffffffffffffffffffffffffffffffffff021916908373ffffffffffffffffffffffffffffffffffffffff16021790555034600160008773ffffffffffffffffffffffffffffffffffffffff1673ffffffffffffffffffffffffffffffffffffffff1681526020019081526020016000206002016000868152602001908152602001600020600601819055507f0158f5674dc243762459b88cfc91b10d2d1ef9d40821cca978c2b680aa444682858533346040516123b49493929190612e15565b60405180910390a15050505050565b60006123cf8383611cf2565b61240e576040517f08c379a0000000000000000000000000000000000000000000000000000000008152600401612405906129d0565b60405180910390fd5b600160008473ffffffffffffffffffffffffffffffffffffffff1673ffffffffffffffffffffffffffffffffffffffff168152602001908152602001600020600201600083815260200190815260200160002060060154905092915050565b600080600160008473ffffffffffffffffffffffffffffffffffffffff1673ffffffffffffffffffffffffffffffffffffffff16815260200190815260200160002060010154119050919050565b6124c36125b3565b73ffffffffffffffffffffffffffffffffffffffff166124e1611cc9565b73ffffffffffffffffffffffffffffffffffffffff1614612537576040517f08c379a000000000000000000000000000000000000000000000000000000000815260040161252e906132f7565b60405180910390fd5b600073ffffffffffffffffffffffffffffffffffffffff168173ffffffffffffffffffffffffffffffffffffffff1614156125a7576040517f08c379a000000000000000000000000000000000000000000000000000000000815260040161259e906136d8565b60405180910390fd5b6125b0816125bb565b50565b600033905090565b60008060009054906101000a900473ffffffffffffffffffffffffffffffffffffffff169050816000806101000a81548173ffffffffffffffffffffffffffffffffffffffff021916908373ffffffffffffffffffffffffffffffffffffffff1602179055508173ffffffffffffffffffffffffffffffffffffffff168173ffffffffffffffffffffffffffffffffffffffff167f8be0079c531659141344cd1fd0a4f28419497f9722a3daafe3b4186f6b6457e060405160405180910390a35050565b600080fd5b600073ffffffffffffffffffffffffffffffffffffffff82169050919050565b60006126af82612684565b9050919050565b60006126c1826126a4565b9050919050565b6126d1816126b6565b81146126dc57600080fd5b50565b6000813590506126ee816126c8565b92915050565b6000819050919050565b612707816126f4565b811461271257600080fd5b50565b600081359050612724816126fe565b92915050565b600080604083850312156127415761274061267f565b5b600061274f858286016126df565b925050602061276085828601612715565b9150509250929050565b612773816126f4565b82525050565b600060208201905061278e600083018461276a565b92915050565b600080600080608085870312156127ae576127ad61267f565b5b60006127bc878288016126df565b94505060206127cd87828801612715565b93505060406127de87828801612715565b92505060606127ef87828801612715565b91505092959194509250565b600061280682612684565b9050919050565b612816816127fb565b82525050565b600060a082019050612831600083018861276a565b61283e602083018761276a565b61284b604083018661276a565b612858606083018561280d565b612865608083018461276a565b9695505050505050565b6000602082019050612884600083018461280d565b92915050565b60008115159050919050565b61289f8161288a565b82525050565b60006020820190506128ba6000830184612896565b92915050565b6000602082840312156128d6576128d561267f565b5b60006128e484828501612715565b91505092915050565b6000602082840312156129035761290261267f565b5b6000612911848285016126df565b91505092915050565b612923816127fb565b811461292e57600080fd5b50565b6000813590506129408161291a565b92915050565b60006020828403121561295c5761295b61267f565b5b600061296a84828501612931565b91505092915050565b600082825260208201905092915050565b7f61756374696f6e206d757374206265206f70656e656400000000000000000000600082015250565b60006129ba601683612973565b91506129c582612984565b602082019050919050565b600060208201905081810360008301526129e9816129ad565b9050919050565b7f4e487b7100000000000000000000000000000000000000000000000000000000600052601160045260246000fd5b6000612a2a826126f4565b9150612a35836126f4565b9250817fffffffffffffffffffffffffffffffffffffffffffffffffffffffffffffffff0483118215151615612a6e57612a6d6129f0565b5b828202905092915050565b7f4e487b7100000000000000000000000000000000000000000000000000000000600052601260045260246000fd5b6000612ab3826126f4565b9150612abe836126f4565b925082612ace57612acd612a79565b5b828204905092915050565b7f61756374696f6e206861736e277420656e646564207965740000000000000000600082015250565b6000612b0f601883612973565b9150612b1a82612ad9565b602082019050919050565b60006020820190508181036000830152612b3e81612b02565b9050919050565b7f6f6e6c792061756374696f6e2077696e6e65722063616e20636c61696d20726560008201527f7761726400000000000000000000000000000000000000000000000000000000602082015250565b6000612ba1602483612973565b9150612bac82612b45565b604082019050919050565b60006020820190508181036000830152612bd081612b94565b9050919050565b600061ffff82169050919050565b612bee81612bd7565b8114612bf957600080fd5b50565b600081519050612c0b81612be5565b92915050565b600060208284031215612c2757612c2661267f565b5b6000612c3584828501612bfc565b91505092915050565b600081905092915050565b50565b6000612c59600083612c3e565b9150612c6482612c49565b600082019050919050565b6000612c7a82612c4c565b9150819050919050565b7f546f6b656d20636f6e7472616374206469646e27742070617920726f61796c7460008201527f6965730000000000000000000000000000000000000000000000000000000000602082015250565b6000612ce0602383612973565b9150612ceb82612c84565b604082019050919050565b60006020820190508181036000830152612d0f81612cd3565b9050919050565b6000612d21826126f4565b9150612d2c836126f4565b925082821015612d3f57612d3e6129f0565b5b828203905092915050565b7f6f776e6572206861736e2774206265656e207061696400000000000000000000600082015250565b6000612d80601683612973565b9150612d8b82612d4a565b602082019050919050565b60006020820190508181036000830152612daf81612d73565b9050919050565b6000819050919050565b6000612ddb612dd6612dd184612684565b612db6565b612684565b9050919050565b6000612ded82612dc0565b9050919050565b6000612dff82612de2565b9050919050565b612e0f81612df4565b82525050565b6000608082019050612e2a6000830187612e06565b612e37602083018661276a565b612e44604083018561280d565b612e51606083018461276a565b95945050505050565b6000606082019050612e6f600083018661280d565b612e7c602083018561280d565b612e89604083018461276a565b949350505050565b7f636f6c6c656374696f6e206973206e6f74207265676973746572656400000000600082015250565b6000612ec7601c83612973565b9150612ed282612e91565b602082019050919050565b60006020820190508181036000830152612ef681612eba565b9050919050565b600081519050612f0c8161291a565b92915050565b600060208284031215612f2857612f2761267f565b5b6000612f3684828501612efd565b91505092915050565b7f73656e646572206973206e6f7420746f6b656e206f776e657200000000000000600082015250565b6000612f75601983612973565b9150612f8082612f3f565b602082019050919050565b60006020820190508181036000830152612fa481612f68565b9050919050565b6000604082019050612fc0600083018561280d565b612fcd602083018461280d565b9392505050565b612fdd8161288a565b8114612fe857600080fd5b50565b600081519050612ffa81612fd4565b92915050565b6000602082840312156130165761301561267f565b5b600061302484828501612feb565b91505092915050565b7f636f6c6c656374696f6e206973206e6f7420617070726f76656420666f72206d60008201527f61726b6574706c61636500000000000000000000000000000000000000000000602082015250565b6000613089602a83612973565b91506130948261302d565b604082019050919050565b600060208201905081810360008301526130b88161307c565b9050919050565b7f73656e646572206973206e6f7420706179696e6720656e6f756768206c69737460008201527f696e672066656500000000000000000000000000000000000000000000000000602082015250565b600061311b602783612973565b9150613126826130bf565b604082019050919050565b6000602082019050818103600083015261314a8161310e565b9050919050565b600061315c826126f4565b9150613167836126f4565b9250827fffffffffffffffffffffffffffffffffffffffffffffffffffffffffffffffff0382111561319c5761319b6129f0565b5b828201905092915050565b7f466c6174466565206861736e2774206265207061696400000000000000000000600082015250565b60006131dd601683612973565b91506131e8826131a7565b602082019050919050565b6000602082019050818103600083015261320c816131d0565b9050919050565b60006080820190506132286000830187612e06565b613235602083018661276a565b613242604083018561276a565b61324f606083018461280d565b95945050505050565b600060a08201905061326d6000830188612e06565b61327a602083018761276a565b613287604083018661276a565b613294606083018561276a565b6132a1608083018461280d565b9695505050505050565b7f4f776e61626c653a2063616c6c6572206973206e6f7420746865206f776e6572600082015250565b60006132e1602083612973565b91506132ec826132ab565b602082019050919050565b60006020820190508181036000830152613310816132d4565b9050919050565b7f666565206d757374206265203e20302026203c3d203530300000000000000000600082015250565b600061334d601883612973565b915061335882613317565b602082019050919050565b6000602082019050818103600083015261337c81613340565b9050919050565b60006020820190506133986000830184612e06565b92915050565b60006040820190506133b36000830185612e06565b6133c0602083018461276a565b9392505050565b7f6f6e6c792061756374696f6e2063726561746f722063616e2063616e63656c2060008201527f6974000000000000000000000000000000000000000000000000000000000000602082015250565b6000613423602283612973565b915061342e826133c7565b604082019050919050565b6000602082019050818103600083015261345281613416565b9050919050565b7f61756374696f6e2077697468206269642063616e6e6f742062652063616e636560008201527f6c6c656400000000000000000000000000000000000000000000000000000000602082015250565b60006134b5602483612973565b91506134c082613459565b604082019050919050565b600060208201905081810360008301526134e4816134a8565b9050919050565b60006060820190506135006000830186612e06565b61350d602083018561276a565b61351a604083018461280d565b949350505050565b7f61756374696f6e206973206e6f74206163746976650000000000000000000000600082015250565b6000613558601583612973565b915061356382613522565b602082019050919050565b600060208201905081810360008301526135878161354b565b9050919050565b7f6269642076616c7565206e6f742073756666696369656e740000000000000000600082015250565b60006135c4601883612973565b91506135cf8261358e565b602082019050919050565b600060208201905081810360008301526135f3816135b7565b9050919050565b7f426964206861736e27742062652072657475726e656400000000000000000000600082015250565b6000613630601683612973565b915061363b826135fa565b602082019050919050565b6000602082019050818103600083015261365f81613623565b9050919050565b7f4f776e61626c653a206e6577206f776e657220697320746865207a65726f206160008201527f6464726573730000000000000000000000000000000000000000000000000000602082015250565b60006136c2602683612973565b91506136cd82613666565b604082019050919050565b600060208201905081810360008301526136f1816136b5565b905091905056fea2646970667358221220b1646eecfcf738811d7f4054f7a24d0cec8c44677d18d5e4c8c1dea28f4970fc64736f6c634300080a0033",
  "immutableReferences": {},
  "source": "// SPDX-License-Identifier: MARKLAR\npragma solidity 0.8.10;\n\nimport \"openzeppelin-solidity/contracts/access/Ownable.sol\";\nimport \"./MockNFT.sol\";\n\ncontract Marketplace is Ownable {\n\n    mapping(address => CollectionInfo) private _collections;\n    uint256 private _flatFee = 1000 wei;\n\n    struct CollectionInfo {\n        MockNFT collection;\n        uint256 fee;\n        mapping(uint256 => AuctionInfo) auctions;\n    }\n\n    struct AuctionInfo {\n        uint256 tokenId;\n        address tokenOwner;\n        uint256 started;\n        uint256 ends;\n        uint256 startPrice;\n        address bidder;\n        uint256 bidderValue;\n    }\n\n    event CollectionRegistered(MockNFT collection);\n    event CollectionFeeSet(MockNFT collection, uint256 fee);\n    event FlatFeeSet(uint256 flatFee);\n    event AuctionCreated(MockNFT collection, uint256 tokenId, uint256 startPrice, uint256 auctionTimeSeconds, address creator);\n    event AuctionCancelled(MockNFT collection, uint256 tokenId, address creator);\n    event AuctionWon(MockNFT collection, uint256 tokenId, address winner, uint256 winningBid);\n    event BidReturned(MockNFT collection, uint256 tokenId, address bidder, uint256 bid);\n    event BidPlaced(MockNFT collection, uint256 tokenId, address bidder, uint256 bid);\n    event OwnerPaid(MockNFT collection, uint256 tokenId, address owner, uint256 payout);\n    event FlatFeePaid(MockNFT collection, uint256 tokenId, uint256 flatFee, address payer);\n\n    \n    modifier onlyRegisteredCollections(MockNFT collection) {\n        require(_collections[address(collection)].fee > 0, \"collection is not registered\");\n        _;\n    }\n\n    modifier validFee(uint256 fee) {\n        require(fee > 0 && fee <= 500, \"fee must be > 0 & <= 500\");\n        _;\n    }\n\n    modifier validCollection(MockNFT collection) {\n        // TODO: validate address is MockNFT contract\n        _;\n    }\n\n    // fee - fee in basis points paid for each auction (fee=100 means 1%)\n    function registerCollection(MockNFT collection, uint256 fee) public onlyOwner validFee(fee) validCollection(collection) {\n        CollectionInfo storage collectionInfo = _collections[address(collection)];\n        collectionInfo.collection = collection;\n        collectionInfo.fee = fee;\n\n        emit CollectionRegistered(collection);\n        emit CollectionFeeSet(collection, fee);\n    }\n\n    function collectionRegistered(MockNFT collection) public view returns (bool) {\n        return _collections[address(collection)].fee > 0;\n    }\n\n    function setCollectionFee(MockNFT collection, uint256 fee) public onlyOwner validFee(fee) onlyRegisteredCollections(collection) {\n        if (_collections[address(collection)].fee != fee) {\n            _collections[address(collection)].fee=fee;\n            emit CollectionFeeSet(collection, fee);\n       }\n    }\n\n    function getCollectionFee(MockNFT collection) public view onlyRegisteredCollections(collection) returns (uint256)  {\n        return _collections[address(collection)].fee;\n    }\n\n    // flatFee - fee in wei paid for each listing\n    function setFlatListingFee(uint256 flatFee) public onlyOwner {\n        _flatFee = flatFee;\n        emit FlatFeeSet(flatFee);\n    }\n\n    function getFlatListngFee() public view returns (uint256) {\n        return _flatFee;\n    }\n\n    /** ============================\n    * ===== AUCTION\n    * ============================ */\n    function openAuction(MockNFT collection, uint256 tokenId, uint256 startPrice, uint256 auctionTimeSeconds) public payable onlyRegisteredCollections(collection) {\n        require(collection.ownerOf(tokenId) == msg.sender, \"sender is not token owner\");\n        require(collection.isApprovedForAll(msg.sender, address(this)), \"collection is not approved for marketplace\");\n        require(msg.value >= _flatFee, \"sender is not paying enough listing fee\");\n\n        _collections[address(collection)].auctions[tokenId] = AuctionInfo({\n            tokenId: tokenId,\n            tokenOwner: msg.sender,\n            started: block.timestamp,\n            ends: block.timestamp + auctionTimeSeconds,\n            startPrice: startPrice,\n            bidder: address(0),\n            bidderValue: 0\n        });\n        \n        (bool flatFeePaid, /* bytes memory data */) = payable(msg.sender).call{value: msg.value - _flatFee}(\"\");\n        require(flatFeePaid, \"FlatFee hasn't be paid\");\n        emit FlatFeePaid(collection, tokenId, _flatFee, msg.sender);\n\n        collection.transferFrom(msg.sender, address(this), tokenId);\n        emit AuctionCreated(collection, tokenId, startPrice, auctionTimeSeconds, msg.sender);\n    }\n\n    function auctionOpened(MockNFT collection, uint256 tokenId) public view returns (bool) {\n        return _collections[address(collection)].auctions[tokenId].startPrice > 0;\n    }\n\n    function getCurrentBid(MockNFT collection, uint256 tokenId) public view returns (uint256) {\n        require(auctionOpened(collection, tokenId), \"auction must be opened\");\n        return _collections[address(collection)].auctions[tokenId].bidderValue;   \n    }\n\n    function getMinimalBid(MockNFT collection, uint256 tokenId) public view returns (uint256) {\n        require(auctionOpened(collection, tokenId), \"auction must be opened\");\n        AuctionInfo memory auctionInfo = _collections[address(collection)].auctions[tokenId];\n        uint256 minBid = auctionInfo.startPrice;\n        if (auctionInfo.bidderValue > 0) {\n            minBid = 11 * auctionInfo.bidderValue / 10;\n        }\n        return minBid;\n    }\n\n    function getAuctionBid(MockNFT collection, uint256 tokenId) public view returns (uint256) {\n        require(auctionOpened(collection, tokenId), \"auction must be opened\");\n        return _collections[address(collection)].auctions[tokenId].bidderValue;   \n    }\n\n    function getAuction(MockNFT collection, uint256 tokenId) public view \n        returns (uint256 started, uint256 ends, uint256 startPrice,  address bidder, uint256 bidderValue) {\n            require(auctionOpened(collection, tokenId), \"auction must be opened\");\n            AuctionInfo memory auctionInfo = _collections[address(collection)].auctions[tokenId];\n            started = auctionInfo.started;\n            ends= auctionInfo.ends;\n            startPrice = auctionInfo.startPrice;\n            bidder = auctionInfo.bidder;\n            bidderValue = auctionInfo.bidderValue;\n    }\n\n    function cancelAuction(MockNFT collection, uint256 tokenId) public onlyRegisteredCollections(collection) {\n        AuctionInfo memory auctionInfo = _collections[address(collection)].auctions[tokenId];\n        require(auctionInfo.tokenOwner == msg.sender, \"only auction creator can cancel it\");\n        require(auctionInfo.bidderValue == 0, \"auction with bid cannot be cancelled\");\n\n        delete _collections[address(collection)].auctions[tokenId];\n\n        collection.transferFrom(address(this), msg.sender, tokenId);\n        emit AuctionCancelled(collection, tokenId, msg.sender);\n    }\n\n    function placeBid(MockNFT collection, uint256 tokenId) public payable onlyRegisteredCollections(collection) {\n        AuctionInfo memory auctionInfo = _collections[address(collection)].auctions[tokenId];\n        require(auctionInfo.started > 0 && block.timestamp < auctionInfo.ends, \"auction is not active\");\n\n        uint256 minBid = getMinimalBid(collection, tokenId);\n        require(msg.value >= minBid, \"bid value not sufficient\");\n\n        if (auctionInfo.bidder != address(0)) {\n            (bool bidReturned, /* bytes memory data */) = payable(auctionInfo.bidder).call{value: auctionInfo.bidderValue}(\"\");\n            require(bidReturned, \"Bid hasn't be returned\");\n            emit BidReturned(collection, tokenId, auctionInfo.bidder, auctionInfo.bidderValue);\n        }\n        _collections[address(collection)].auctions[tokenId].bidder = msg.sender;\n        _collections[address(collection)].auctions[tokenId].bidderValue= msg.value;\n        emit BidPlaced(collection, tokenId, msg.sender, msg.value);\n    }\n\n    function claimReward(MockNFT collection, uint256 tokenId) public payable {\n        AuctionInfo memory auctionInfo = _collections[address(collection)].auctions[tokenId];\n        require(block.timestamp > auctionInfo.ends, \"auction hasn't ended yet\");\n        require(msg.sender == auctionInfo.bidder, \"only auction winner can claim reward\");\n\n        uint256 payToCreators = auctionInfo.bidderValue * collection.getRoyalties() / 10000;\n        (bool creatorsPaid, /* bytes memory data */) = payable(address(collection)).call{value: payToCreators}(\"\");\n        require(creatorsPaid, \"Tokem contract didn't pay roaylties\");\n        uint256 paidToMarketplace = auctionInfo.bidderValue * _collections[address(collection)].fee / 10000;\n        uint256 payToOwner = auctionInfo.bidderValue - payToCreators - paidToMarketplace;\n\n        (bool ownerPaid, /* bytes memory data */) = payable(auctionInfo.tokenOwner).call{value: payToOwner}(\"\");\n        require(ownerPaid, \"owner hasn't been paid\");\n        emit OwnerPaid(collection, tokenId, auctionInfo.tokenOwner, payToOwner);\n\n        delete _collections[address(collection)].auctions[tokenId];\n\n        collection.transferFrom(address(this), msg.sender, tokenId);\n        emit AuctionWon(collection, tokenId, msg.sender, auctionInfo.bidderValue);\n    }   \n\n    // TODO: owner should be able to withdraw fees marketplace gathered \n    // note: fees will be lower than contract's balance because of active bids which are held by contract\n\n}",
  "sourcePath": "/Users/jlochman/Documents/Consensys/blockchain-developer-bootcamp-final-project/contracts/Marketplace.sol",
  "compiler": {
    "name": "solc",
    "version": "0.8.10+commit.fc410830.Emscripten.clang"
  },
  "schemaVersion": "3.4.3",
  "updatedAt": "2021-11-22T17:36:22.608Z",
  "networkType": "ethereum",
  "devdoc": {
    "kind": "dev",
    "methods": {
      "owner()": {
        "details": "Returns the address of the current owner."
      },
      "renounceOwnership()": {
        "details": "Leaves the contract without owner. It will not be possible to call `onlyOwner` functions anymore. Can only be called by the current owner. NOTE: Renouncing ownership will leave the contract without an owner, thereby removing any functionality that is only available to the owner."
      },
      "transferOwnership(address)": {
        "details": "Transfers ownership of the contract to a new account (`newOwner`). Can only be called by the current owner."
      }
    },
    "version": 1
  },
  "userdoc": {
    "kind": "user",
    "methods": {
      "openAuction(address,uint256,uint256,uint256)": {
        "notice": "============================ ===== AUCTION ============================ "
      }
    },
    "version": 1
  }
}