{
  "contractName": "Marketplace",
  "abi": [
    {
      "anonymous": false,
      "inputs": [
        {
          "indexed": false,
          "internalType": "contract MockNFT",
          "name": "collection",
          "type": "address"
        },
        {
          "indexed": false,
          "internalType": "uint256",
          "name": "tokenId",
          "type": "uint256"
        },
        {
          "indexed": false,
          "internalType": "address",
          "name": "creator",
          "type": "address"
        }
      ],
      "name": "AuctionCancelled",
      "type": "event"
    },
    {
      "anonymous": false,
      "inputs": [
        {
          "indexed": false,
          "internalType": "contract MockNFT",
          "name": "collection",
          "type": "address"
        },
        {
          "indexed": false,
          "internalType": "uint256",
          "name": "tokenId",
          "type": "uint256"
        },
        {
          "indexed": false,
          "internalType": "uint256",
          "name": "startPrice",
          "type": "uint256"
        },
        {
          "indexed": false,
          "internalType": "uint256",
          "name": "auctionTimeSeconds",
          "type": "uint256"
        },
        {
          "indexed": false,
          "internalType": "address",
          "name": "creator",
          "type": "address"
        }
      ],
      "name": "AuctionCreated",
      "type": "event"
    },
    {
      "anonymous": false,
      "inputs": [
        {
          "indexed": false,
          "internalType": "contract MockNFT",
          "name": "collection",
          "type": "address"
        },
        {
          "indexed": false,
          "internalType": "uint256",
          "name": "tokenId",
          "type": "uint256"
        },
        {
          "indexed": false,
          "internalType": "address",
          "name": "winner",
          "type": "address"
        },
        {
          "indexed": false,
          "internalType": "uint256",
          "name": "winningBid",
          "type": "uint256"
        }
      ],
      "name": "AuctionWon",
      "type": "event"
    },
    {
      "anonymous": false,
      "inputs": [
        {
          "indexed": false,
          "internalType": "contract MockNFT",
          "name": "collection",
          "type": "address"
        },
        {
          "indexed": false,
          "internalType": "uint256",
          "name": "tokenId",
          "type": "uint256"
        },
        {
          "indexed": false,
          "internalType": "address",
          "name": "bidder",
          "type": "address"
        },
        {
          "indexed": false,
          "internalType": "uint256",
          "name": "bid",
          "type": "uint256"
        }
      ],
      "name": "BidPlaced",
      "type": "event"
    },
    {
      "anonymous": false,
      "inputs": [
        {
          "indexed": false,
          "internalType": "contract MockNFT",
          "name": "collection",
          "type": "address"
        },
        {
          "indexed": false,
          "internalType": "uint256",
          "name": "tokenId",
          "type": "uint256"
        },
        {
          "indexed": false,
          "internalType": "address",
          "name": "bidder",
          "type": "address"
        },
        {
          "indexed": false,
          "internalType": "uint256",
          "name": "bid",
          "type": "uint256"
        }
      ],
      "name": "BidReturned",
      "type": "event"
    },
    {
      "anonymous": false,
      "inputs": [
        {
          "indexed": false,
          "internalType": "contract MockNFT",
          "name": "collection",
          "type": "address"
        },
        {
          "indexed": false,
          "internalType": "uint256",
          "name": "fee",
          "type": "uint256"
        }
      ],
      "name": "CollectionFeeSet",
      "type": "event"
    },
    {
      "anonymous": false,
      "inputs": [
        {
          "indexed": false,
          "internalType": "contract MockNFT",
          "name": "collection",
          "type": "address"
        }
      ],
      "name": "CollectionRegistered",
      "type": "event"
    },
    {
      "anonymous": false,
      "inputs": [
        {
          "indexed": false,
          "internalType": "contract MockNFT",
          "name": "collection",
          "type": "address"
        },
        {
          "indexed": false,
          "internalType": "uint256",
          "name": "tokenId",
          "type": "uint256"
        },
        {
          "indexed": false,
          "internalType": "uint256",
          "name": "flatFee",
          "type": "uint256"
        },
        {
          "indexed": false,
          "internalType": "address",
          "name": "payer",
          "type": "address"
        }
      ],
      "name": "FlatFeePaid",
      "type": "event"
    },
    {
      "anonymous": false,
      "inputs": [
        {
          "indexed": false,
          "internalType": "uint256",
          "name": "flatFee",
          "type": "uint256"
        }
      ],
      "name": "FlatFeeSet",
      "type": "event"
    },
    {
      "anonymous": false,
      "inputs": [
        {
          "indexed": false,
          "internalType": "contract MockNFT",
          "name": "collection",
          "type": "address"
        },
        {
          "indexed": false,
          "internalType": "uint256",
          "name": "tokenId",
          "type": "uint256"
        },
        {
          "indexed": false,
          "internalType": "address",
          "name": "owner",
          "type": "address"
        },
        {
          "indexed": false,
          "internalType": "uint256",
          "name": "payout",
          "type": "uint256"
        }
      ],
      "name": "OwnerPaid",
      "type": "event"
    },
    {
      "anonymous": false,
      "inputs": [
        {
          "indexed": true,
          "internalType": "address",
          "name": "previousOwner",
          "type": "address"
        },
        {
          "indexed": true,
          "internalType": "address",
          "name": "newOwner",
          "type": "address"
        }
      ],
      "name": "OwnershipTransferred",
      "type": "event"
    },
    {
      "inputs": [],
      "name": "owner",
      "outputs": [
        {
          "internalType": "address",
          "name": "",
          "type": "address"
        }
      ],
      "stateMutability": "view",
      "type": "function",
      "constant": true
    },
    {
      "inputs": [],
      "name": "renounceOwnership",
      "outputs": [],
      "stateMutability": "nonpayable",
      "type": "function"
    },
    {
      "inputs": [
        {
          "internalType": "address",
          "name": "newOwner",
          "type": "address"
        }
      ],
      "name": "transferOwnership",
      "outputs": [],
      "stateMutability": "nonpayable",
      "type": "function"
    },
    {
      "inputs": [
        {
          "internalType": "contract MockNFT",
          "name": "collection",
          "type": "address"
        },
        {
          "internalType": "uint256",
          "name": "fee",
          "type": "uint256"
        }
      ],
      "name": "registerCollection",
      "outputs": [],
      "stateMutability": "nonpayable",
      "type": "function"
    },
    {
      "inputs": [
        {
          "internalType": "contract MockNFT",
          "name": "collection",
          "type": "address"
        }
      ],
      "name": "collectionRegistered",
      "outputs": [
        {
          "internalType": "bool",
          "name": "",
          "type": "bool"
        }
      ],
      "stateMutability": "view",
      "type": "function",
      "constant": true
    },
    {
      "inputs": [
        {
          "internalType": "contract MockNFT",
          "name": "collection",
          "type": "address"
        },
        {
          "internalType": "uint256",
          "name": "fee",
          "type": "uint256"
        }
      ],
      "name": "setCollectionFee",
      "outputs": [],
      "stateMutability": "nonpayable",
      "type": "function"
    },
    {
      "inputs": [
        {
          "internalType": "contract MockNFT",
          "name": "collection",
          "type": "address"
        }
      ],
      "name": "getCollectionFee",
      "outputs": [
        {
          "internalType": "uint256",
          "name": "",
          "type": "uint256"
        }
      ],
      "stateMutability": "view",
      "type": "function",
      "constant": true
    },
    {
      "inputs": [
        {
          "internalType": "uint256",
          "name": "flatFee",
          "type": "uint256"
        }
      ],
      "name": "setFlatListingFee",
      "outputs": [],
      "stateMutability": "nonpayable",
      "type": "function"
    },
    {
      "inputs": [],
      "name": "getFlatListngFee",
      "outputs": [
        {
          "internalType": "uint256",
          "name": "",
          "type": "uint256"
        }
      ],
      "stateMutability": "view",
      "type": "function",
      "constant": true
    },
    {
      "inputs": [
        {
          "internalType": "contract MockNFT",
          "name": "collection",
          "type": "address"
        },
        {
          "internalType": "uint256",
          "name": "tokenId",
          "type": "uint256"
        },
        {
          "internalType": "uint256",
          "name": "startPrice",
          "type": "uint256"
        },
        {
          "internalType": "uint256",
          "name": "auctionTimeSeconds",
          "type": "uint256"
        }
      ],
      "name": "openAuction",
      "outputs": [],
      "stateMutability": "payable",
      "type": "function",
      "payable": true
    },
    {
      "inputs": [
        {
          "internalType": "contract MockNFT",
          "name": "collection",
          "type": "address"
        },
        {
          "internalType": "uint256",
          "name": "tokenId",
          "type": "uint256"
        }
      ],
      "name": "auctionOpened",
      "outputs": [
        {
          "internalType": "bool",
          "name": "",
          "type": "bool"
        }
      ],
      "stateMutability": "view",
      "type": "function",
      "constant": true
    },
    {
      "inputs": [
        {
          "internalType": "contract MockNFT",
          "name": "collection",
          "type": "address"
        },
        {
          "internalType": "uint256",
          "name": "tokenId",
          "type": "uint256"
        }
      ],
      "name": "getCurrentBid",
      "outputs": [
        {
          "internalType": "uint256",
          "name": "",
          "type": "uint256"
        }
      ],
      "stateMutability": "view",
      "type": "function",
      "constant": true
    },
    {
      "inputs": [
        {
          "internalType": "contract MockNFT",
          "name": "collection",
          "type": "address"
        },
        {
          "internalType": "uint256",
          "name": "tokenId",
          "type": "uint256"
        }
      ],
      "name": "getMinimalBid",
      "outputs": [
        {
          "internalType": "uint256",
          "name": "",
          "type": "uint256"
        }
      ],
      "stateMutability": "view",
      "type": "function",
      "constant": true
    },
    {
      "inputs": [
        {
          "internalType": "contract MockNFT",
          "name": "collection",
          "type": "address"
        },
        {
          "internalType": "uint256",
          "name": "tokenId",
          "type": "uint256"
        }
      ],
      "name": "getAuctionBid",
      "outputs": [
        {
          "internalType": "uint256",
          "name": "",
          "type": "uint256"
        }
      ],
      "stateMutability": "view",
      "type": "function",
      "constant": true
    },
    {
      "inputs": [
        {
          "internalType": "contract MockNFT",
          "name": "collection",
          "type": "address"
        },
        {
          "internalType": "uint256",
          "name": "tokenId",
          "type": "uint256"
        }
      ],
      "name": "getAuction",
      "outputs": [
        {
          "internalType": "uint256",
          "name": "started",
          "type": "uint256"
        },
        {
          "internalType": "uint256",
          "name": "ends",
          "type": "uint256"
        },
        {
          "internalType": "uint256",
          "name": "startPrice",
          "type": "uint256"
        },
        {
          "internalType": "address",
          "name": "bidder",
          "type": "address"
        },
        {
          "internalType": "uint256",
          "name": "bidderValue",
          "type": "uint256"
        }
      ],
      "stateMutability": "view",
      "type": "function",
      "constant": true
    },
    {
      "inputs": [
        {
          "internalType": "contract MockNFT",
          "name": "collection",
          "type": "address"
        },
        {
          "internalType": "uint256",
          "name": "tokenId",
          "type": "uint256"
        }
      ],
      "name": "cancelAuction",
      "outputs": [],
      "stateMutability": "nonpayable",
      "type": "function"
    },
    {
      "inputs": [
        {
          "internalType": "contract MockNFT",
          "name": "collection",
          "type": "address"
        },
        {
          "internalType": "uint256",
          "name": "tokenId",
          "type": "uint256"
        }
      ],
      "name": "placeBid",
      "outputs": [],
      "stateMutability": "payable",
      "type": "function",
      "payable": true
    },
    {
      "inputs": [
        {
          "internalType": "contract MockNFT",
          "name": "collection",
          "type": "address"
        },
        {
          "internalType": "uint256",
          "name": "tokenId",
          "type": "uint256"
        }
      ],
      "name": "claimReward",
      "outputs": [],
      "stateMutability": "payable",
      "type": "function",
      "payable": true
    }
  ],
  "bytecode": "0x60806040526103e86002553480156200001757600080fd5b50620000386200002c6200003e60201b60201c565b6200004660201b60201c565b6200010a565b600033905090565b60008060009054906101000a900473ffffffffffffffffffffffffffffffffffffffff169050816000806101000a81548173ffffffffffffffffffffffffffffffffffffffff021916908373ffffffffffffffffffffffffffffffffffffffff1602179055508173ffffffffffffffffffffffffffffffffffffffff168173ffffffffffffffffffffffffffffffffffffffff167f8be0079c531659141344cd1fd0a4f28419497f9722a3daafe3b4186f6b6457e060405160405180910390a35050565b613805806200011a6000396000f3fe6080604052600436106101095760003560e01c80638da5cb5b11610095578063b84655ad11610064578063b84655ad14610361578063d98b9bb51461038c578063e35ed75a146103a8578063f0c2dd89146103e5578063f2fde38b1461042257610109565b80638da5cb5b14610293578063a1b8ddb8146102be578063ae934ef3146102fb578063b3a4f97b1461032457610109565b806343205223116100dc57806343205223146101c05780634aa2fd4b146101e9578063715018a614610212578063762a66a214610229578063859b97fe1461026a57610109565b806310a810921461010e578063174e31c41461014b57806320755f2f1461016757806339a93ca114610183575b600080fd5b34801561011a57600080fd5b506101356004803603810190610130919061276f565b61044b565b60405161014291906127be565b60405180910390f35b6101656004803603810190610160919061276f565b610617565b005b610181600480360381019061017c91906127d9565b610c47565b005b34801561018f57600080fd5b506101aa60048036038101906101a5919061276f565b611229565b6040516101b791906127be565b60405180910390f35b3480156101cc57600080fd5b506101e760048036038101906101e2919061276f565b6112d3565b005b3480156101f557600080fd5b50610210600480360381019061020b919061276f565b6114a8565b005b34801561021e57600080fd5b506102276116cc565b005b34801561023557600080fd5b50610250600480360381019061024b919061276f565b611754565b604051610261959493929190612861565b60405180910390f35b34801561027657600080fd5b50610291600480360381019061028c919061276f565b611913565b005b34801561029f57600080fd5b506102a8611d0e565b6040516102b591906128b4565b60405180910390f35b3480156102ca57600080fd5b506102e560048036038101906102e0919061276f565b611d37565b6040516102f291906128ea565b60405180910390f35b34801561030757600080fd5b50610322600480360381019061031d9190612905565b611d9a565b005b34801561033057600080fd5b5061034b60048036038101906103469190612932565b611e57565b60405161035891906127be565b60405180910390f35b34801561036d57600080fd5b50610376611f2a565b60405161038391906127be565b60405180910390f35b6103a660048036038101906103a1919061276f565b611f34565b005b3480156103b457600080fd5b506103cf60048036038101906103ca919061276f565b612408565b6040516103dc91906127be565b60405180910390f35b3480156103f157600080fd5b5061040c60048036038101906104079190612932565b6124b2565b60405161041991906128ea565b60405180910390f35b34801561042e57600080fd5b506104496004803603810190610444919061298b565b612500565b005b60006104578383611d37565b610496576040517f08c379a000000000000000000000000000000000000000000000000000000000815260040161048d90612a15565b60405180910390fd5b6000600160008573ffffffffffffffffffffffffffffffffffffffff1673ffffffffffffffffffffffffffffffffffffffff16815260200190815260200160002060020160008481526020019081526020016000206040518060e0016040529081600082015481526020016001820160009054906101000a900473ffffffffffffffffffffffffffffffffffffffff1673ffffffffffffffffffffffffffffffffffffffff1673ffffffffffffffffffffffffffffffffffffffff1681526020016002820154815260200160038201548152602001600482015481526020016005820160009054906101000a900473ffffffffffffffffffffffffffffffffffffffff1673ffffffffffffffffffffffffffffffffffffffff1673ffffffffffffffffffffffffffffffffffffffff168152602001600682015481525050905060008160800151905060008260c00151111561060c57600a8260c00151600b6105ff9190612a64565b6106099190612aed565b90505b809250505092915050565b6000600160008473ffffffffffffffffffffffffffffffffffffffff1673ffffffffffffffffffffffffffffffffffffffff16815260200190815260200160002060020160008381526020019081526020016000206040518060e0016040529081600082015481526020016001820160009054906101000a900473ffffffffffffffffffffffffffffffffffffffff1673ffffffffffffffffffffffffffffffffffffffff1673ffffffffffffffffffffffffffffffffffffffff1681526020016002820154815260200160038201548152602001600482015481526020016005820160009054906101000a900473ffffffffffffffffffffffffffffffffffffffff1673ffffffffffffffffffffffffffffffffffffffff1673ffffffffffffffffffffffffffffffffffffffff16815260200160068201548152505090508060600151421161079d576040517f08c379a000000000000000000000000000000000000000000000000000000000815260040161079490612b6a565b60405180910390fd5b8060a0015173ffffffffffffffffffffffffffffffffffffffff163373ffffffffffffffffffffffffffffffffffffffff161461080f576040517f08c379a000000000000000000000000000000000000000000000000000000000815260040161080690612bfc565b60405180910390fd5b60006127108473ffffffffffffffffffffffffffffffffffffffff166333df048e6040518163ffffffff1660e01b8152600401602060405180830381865afa15801561085f573d6000803e3d6000fd5b505050506040513d601f19601f820116820180604052508101906108839190612c56565b61ffff168360c001516108969190612a64565b6108a09190612aed565b905060008473ffffffffffffffffffffffffffffffffffffffff16826040516108c890612cb4565b60006040518083038185875af1925050503d8060008114610905576040519150601f19603f3d011682016040523d82523d6000602084013e61090a565b606091505b505090508061094e576040517f08c379a000000000000000000000000000000000000000000000000000000000815260040161094590612d3b565b60405180910390fd5b6000612710600160008873ffffffffffffffffffffffffffffffffffffffff1673ffffffffffffffffffffffffffffffffffffffff168152602001908152602001600020600101548560c001516109a59190612a64565b6109af9190612aed565b9050600081848660c001516109c49190612d5b565b6109ce9190612d5b565b90506000856020015173ffffffffffffffffffffffffffffffffffffffff16826040516109fa90612cb4565b60006040518083038185875af1925050503d8060008114610a37576040519150601f19603f3d011682016040523d82523d6000602084013e610a3c565b606091505b5050905080610a80576040517f08c379a0000000000000000000000000000000000000000000000000000000008152600401610a7790612ddb565b60405180910390fd5b7f3aa3d55dbe9b2898d85863c8e85e94e6c01c8de2af208103bac8a777c65f10b68888886020015185604051610ab99493929190612e5a565b60405180910390a1600160008973ffffffffffffffffffffffffffffffffffffffff1673ffffffffffffffffffffffffffffffffffffffff16815260200190815260200160002060020160008881526020019081526020016000206000808201600090556001820160006101000a81549073ffffffffffffffffffffffffffffffffffffffff02191690556002820160009055600382016000905560048201600090556005820160006101000a81549073ffffffffffffffffffffffffffffffffffffffff0219169055600682016000905550508773ffffffffffffffffffffffffffffffffffffffff166323b872dd30338a6040518463ffffffff1660e01b8152600401610bca93929190612e9f565b600060405180830381600087803b158015610be457600080fd5b505af1158015610bf8573d6000803e3d6000fd5b505050507f57897076b3b4da1e5b44291d2afa77158945c16a6bb3033421ebd9331d0c6fe48888338960c00151604051610c359493929190612e5a565b60405180910390a15050505050505050565b836000600160008373ffffffffffffffffffffffffffffffffffffffff1673ffffffffffffffffffffffffffffffffffffffff1681526020019081526020016000206001015411610ccd576040517f08c379a0000000000000000000000000000000000000000000000000000000008152600401610cc490612f22565b60405180910390fd5b3373ffffffffffffffffffffffffffffffffffffffff168573ffffffffffffffffffffffffffffffffffffffff16636352211e866040518263ffffffff1660e01b8152600401610d1d91906127be565b602060405180830381865afa158015610d3a573d6000803e3d6000fd5b505050506040513d601f19601f82011682018060405250810190610d5e9190612f57565b73ffffffffffffffffffffffffffffffffffffffff1614610db4576040517f08c379a0000000000000000000000000000000000000000000000000000000008152600401610dab90612fd0565b60405180910390fd5b62278d008210610df9576040517f08c379a0000000000000000000000000000000000000000000000000000000008152600401610df090613062565b60405180910390fd5b8473ffffffffffffffffffffffffffffffffffffffff1663e985e9c533306040518363ffffffff1660e01b8152600401610e34929190613082565b602060405180830381865afa158015610e51573d6000803e3d6000fd5b505050506040513d601f19601f82011682018060405250810190610e7591906130d7565b610eb4576040517f08c379a0000000000000000000000000000000000000000000000000000000008152600401610eab90613176565b60405180910390fd5b600254341015610ef9576040517f08c379a0000000000000000000000000000000000000000000000000000000008152600401610ef090613208565b60405180910390fd5b6040518060e001604052808581526020013373ffffffffffffffffffffffffffffffffffffffff1681526020014281526020018342610f389190613228565b8152602001848152602001600073ffffffffffffffffffffffffffffffffffffffff1681526020016000815250600160008773ffffffffffffffffffffffffffffffffffffffff1673ffffffffffffffffffffffffffffffffffffffff16815260200190815260200160002060020160008681526020019081526020016000206000820151816000015560208201518160010160006101000a81548173ffffffffffffffffffffffffffffffffffffffff021916908373ffffffffffffffffffffffffffffffffffffffff16021790555060408201518160020155606082015181600301556080820151816004015560a08201518160050160006101000a81548173ffffffffffffffffffffffffffffffffffffffff021916908373ffffffffffffffffffffffffffffffffffffffff16021790555060c0820151816006015590505060003373ffffffffffffffffffffffffffffffffffffffff16600254346110a29190612d5b565b6040516110ae90612cb4565b60006040518083038185875af1925050503d80600081146110eb576040519150601f19603f3d011682016040523d82523d6000602084013e6110f0565b606091505b5050905080611134576040517f08c379a000000000000000000000000000000000000000000000000000000000815260040161112b906132ca565b60405180910390fd5b7f884636537ea8993a66e954236e0d9fc67074cc0de576a51646d989ef57fa473286866002543360405161116b94939291906132ea565b60405180910390a18573ffffffffffffffffffffffffffffffffffffffff166323b872dd3330886040518463ffffffff1660e01b81526004016111b093929190612e9f565b600060405180830381600087803b1580156111ca57600080fd5b505af11580156111de573d6000803e3d6000fd5b505050507f610ddcae48f15a18a61c6b1e963953013624de14fda7a1b3fcc95c3047ed4556868686863360405161121995949392919061332f565b60405180910390a1505050505050565b60006112358383611d37565b611274576040517f08c379a000000000000000000000000000000000000000000000000000000000815260040161126b90612a15565b60405180910390fd5b600160008473ffffffffffffffffffffffffffffffffffffffff1673ffffffffffffffffffffffffffffffffffffffff168152602001908152602001600020600201600083815260200190815260200160002060060154905092915050565b6112db6125f8565b73ffffffffffffffffffffffffffffffffffffffff166112f9611d0e565b73ffffffffffffffffffffffffffffffffffffffff161461134f576040517f08c379a0000000000000000000000000000000000000000000000000000000008152600401611346906133ce565b60405180910390fd5b8060008111801561136257506101f48111155b6113a1576040517f08c379a00000000000000000000000000000000000000000000000000000000081526004016113989061343a565b60405180910390fd5b826000600160008673ffffffffffffffffffffffffffffffffffffffff1673ffffffffffffffffffffffffffffffffffffffff1681526020019081526020016000209050848160000160006101000a81548173ffffffffffffffffffffffffffffffffffffffff021916908373ffffffffffffffffffffffffffffffffffffffff1602179055508381600101819055507ffb99393fd31547f4a765604f2c2d122ce8ccb313edeef8b951130d8bcca866e985604051611460919061345a565b60405180910390a17f1065c30e11477a157bfaaf02250a21b6431b94a22e4bd0420a094fa1fa703ae18585604051611499929190613475565b60405180910390a15050505050565b6114b06125f8565b73ffffffffffffffffffffffffffffffffffffffff166114ce611d0e565b73ffffffffffffffffffffffffffffffffffffffff1614611524576040517f08c379a000000000000000000000000000000000000000000000000000000000815260040161151b906133ce565b60405180910390fd5b8060008111801561153757506101f48111155b611576576040517f08c379a000000000000000000000000000000000000000000000000000000000815260040161156d9061343a565b60405180910390fd5b826000600160008373ffffffffffffffffffffffffffffffffffffffff1673ffffffffffffffffffffffffffffffffffffffff16815260200190815260200160002060010154116115fc576040517f08c379a00000000000000000000000000000000000000000000000000000000081526004016115f390612f22565b60405180910390fd5b82600160008673ffffffffffffffffffffffffffffffffffffffff1673ffffffffffffffffffffffffffffffffffffffff16815260200190815260200160002060010154146116c65782600160008673ffffffffffffffffffffffffffffffffffffffff1673ffffffffffffffffffffffffffffffffffffffff168152602001908152602001600020600101819055507f1065c30e11477a157bfaaf02250a21b6431b94a22e4bd0420a094fa1fa703ae184846040516116bd929190613475565b60405180910390a15b50505050565b6116d46125f8565b73ffffffffffffffffffffffffffffffffffffffff166116f2611d0e565b73ffffffffffffffffffffffffffffffffffffffff1614611748576040517f08c379a000000000000000000000000000000000000000000000000000000000815260040161173f906133ce565b60405180910390fd5b6117526000612600565b565b60008060008060006117668787611d37565b6117a5576040517f08c379a000000000000000000000000000000000000000000000000000000000815260040161179c90612a15565b60405180910390fd5b6000600160008973ffffffffffffffffffffffffffffffffffffffff1673ffffffffffffffffffffffffffffffffffffffff16815260200190815260200160002060020160008881526020019081526020016000206040518060e0016040529081600082015481526020016001820160009054906101000a900473ffffffffffffffffffffffffffffffffffffffff1673ffffffffffffffffffffffffffffffffffffffff1673ffffffffffffffffffffffffffffffffffffffff1681526020016002820154815260200160038201548152602001600482015481526020016005820160009054906101000a900473ffffffffffffffffffffffffffffffffffffffff1673ffffffffffffffffffffffffffffffffffffffff1673ffffffffffffffffffffffffffffffffffffffff16815260200160068201548152505090508060400151955080606001519450806080015193508060a0015192508060c001519150509295509295909350565b816000600160008373ffffffffffffffffffffffffffffffffffffffff1673ffffffffffffffffffffffffffffffffffffffff1681526020019081526020016000206001015411611999576040517f08c379a000000000000000000000000000000000000000000000000000000000815260040161199090612f22565b60405180910390fd5b6000600160008573ffffffffffffffffffffffffffffffffffffffff1673ffffffffffffffffffffffffffffffffffffffff16815260200190815260200160002060020160008481526020019081526020016000206040518060e0016040529081600082015481526020016001820160009054906101000a900473ffffffffffffffffffffffffffffffffffffffff1673ffffffffffffffffffffffffffffffffffffffff1673ffffffffffffffffffffffffffffffffffffffff1681526020016002820154815260200160038201548152602001600482015481526020016005820160009054906101000a900473ffffffffffffffffffffffffffffffffffffffff1673ffffffffffffffffffffffffffffffffffffffff1673ffffffffffffffffffffffffffffffffffffffff16815260200160068201548152505090503373ffffffffffffffffffffffffffffffffffffffff16816020015173ffffffffffffffffffffffffffffffffffffffff1614611b4b576040517f08c379a0000000000000000000000000000000000000000000000000000000008152600401611b4290613510565b60405180910390fd5b60008160c0015114611b92576040517f08c379a0000000000000000000000000000000000000000000000000000000008152600401611b89906135a2565b60405180910390fd5b600160008573ffffffffffffffffffffffffffffffffffffffff1673ffffffffffffffffffffffffffffffffffffffff16815260200190815260200160002060020160008481526020019081526020016000206000808201600090556001820160006101000a81549073ffffffffffffffffffffffffffffffffffffffff02191690556002820160009055600382016000905560048201600090556005820160006101000a81549073ffffffffffffffffffffffffffffffffffffffff0219169055600682016000905550508373ffffffffffffffffffffffffffffffffffffffff166323b872dd3033866040518463ffffffff1660e01b8152600401611c9b93929190612e9f565b600060405180830381600087803b158015611cb557600080fd5b505af1158015611cc9573d6000803e3d6000fd5b505050507f81ac9b9393c688a58e4829f289ada7a9a0ef6b193b25950986416ef84025becd848433604051611d00939291906135c2565b60405180910390a150505050565b60008060009054906101000a900473ffffffffffffffffffffffffffffffffffffffff16905090565b600080600160008573ffffffffffffffffffffffffffffffffffffffff1673ffffffffffffffffffffffffffffffffffffffff16815260200190815260200160002060020160008481526020019081526020016000206004015411905092915050565b611da26125f8565b73ffffffffffffffffffffffffffffffffffffffff16611dc0611d0e565b73ffffffffffffffffffffffffffffffffffffffff1614611e16576040517f08c379a0000000000000000000000000000000000000000000000000000000008152600401611e0d906133ce565b60405180910390fd5b806002819055507f02e6220a8c55d7fd57319e91a44a9aac5a5fd4c64a19bb34bb83c8cedbf3f39881604051611e4c91906127be565b60405180910390a150565b6000816000600160008373ffffffffffffffffffffffffffffffffffffffff1673ffffffffffffffffffffffffffffffffffffffff1681526020019081526020016000206001015411611edf576040517f08c379a0000000000000000000000000000000000000000000000000000000008152600401611ed690612f22565b60405180910390fd5b600160008473ffffffffffffffffffffffffffffffffffffffff1673ffffffffffffffffffffffffffffffffffffffff16815260200190815260200160002060010154915050919050565b6000600254905090565b816000600160008373ffffffffffffffffffffffffffffffffffffffff1673ffffffffffffffffffffffffffffffffffffffff1681526020019081526020016000206001015411611fba576040517f08c379a0000000000000000000000000000000000000000000000000000000008152600401611fb190612f22565b60405180910390fd5b6000600160008573ffffffffffffffffffffffffffffffffffffffff1673ffffffffffffffffffffffffffffffffffffffff16815260200190815260200160002060020160008481526020019081526020016000206040518060e0016040529081600082015481526020016001820160009054906101000a900473ffffffffffffffffffffffffffffffffffffffff1673ffffffffffffffffffffffffffffffffffffffff1673ffffffffffffffffffffffffffffffffffffffff1681526020016002820154815260200160038201548152602001600482015481526020016005820160009054906101000a900473ffffffffffffffffffffffffffffffffffffffff1673ffffffffffffffffffffffffffffffffffffffff1673ffffffffffffffffffffffffffffffffffffffff1681526020016006820154815250509050600081604001511180156121115750806060015142105b612150576040517f08c379a000000000000000000000000000000000000000000000000000000000815260040161214790613645565b60405180910390fd5b600061215c858561044b565b9050803410156121a1576040517f08c379a0000000000000000000000000000000000000000000000000000000008152600401612198906136b1565b60405180910390fd5b600073ffffffffffffffffffffffffffffffffffffffff168260a0015173ffffffffffffffffffffffffffffffffffffffff16146122d45760008260a0015173ffffffffffffffffffffffffffffffffffffffff168360c0015160405161220790612cb4565b60006040518083038185875af1925050503d8060008114612244576040519150601f19603f3d011682016040523d82523d6000602084013e612249565b606091505b505090508061228d576040517f08c379a00000000000000000000000000000000000000000000000000000000081526004016122849061371d565b60405180910390fd5b7f1917148edb0bed70e68a7364213bb2eacbaecac176e6e1dbb68a3374748b3aed86868560a001518660c001516040516122ca9493929190612e5a565b60405180910390a1505b33600160008773ffffffffffffffffffffffffffffffffffffffff1673ffffffffffffffffffffffffffffffffffffffff168152602001908152602001600020600201600086815260200190815260200160002060050160006101000a81548173ffffffffffffffffffffffffffffffffffffffff021916908373ffffffffffffffffffffffffffffffffffffffff16021790555034600160008773ffffffffffffffffffffffffffffffffffffffff1673ffffffffffffffffffffffffffffffffffffffff1681526020019081526020016000206002016000868152602001908152602001600020600601819055507f0158f5674dc243762459b88cfc91b10d2d1ef9d40821cca978c2b680aa444682858533346040516123f99493929190612e5a565b60405180910390a15050505050565b60006124148383611d37565b612453576040517f08c379a000000000000000000000000000000000000000000000000000000000815260040161244a90612a15565b60405180910390fd5b600160008473ffffffffffffffffffffffffffffffffffffffff1673ffffffffffffffffffffffffffffffffffffffff168152602001908152602001600020600201600083815260200190815260200160002060060154905092915050565b600080600160008473ffffffffffffffffffffffffffffffffffffffff1673ffffffffffffffffffffffffffffffffffffffff16815260200190815260200160002060010154119050919050565b6125086125f8565b73ffffffffffffffffffffffffffffffffffffffff16612526611d0e565b73ffffffffffffffffffffffffffffffffffffffff161461257c576040517f08c379a0000000000000000000000000000000000000000000000000000000008152600401612573906133ce565b60405180910390fd5b600073ffffffffffffffffffffffffffffffffffffffff168173ffffffffffffffffffffffffffffffffffffffff1614156125ec576040517f08c379a00000000000000000000000000000000000000000000000000000000081526004016125e3906137af565b60405180910390fd5b6125f581612600565b50565b600033905090565b60008060009054906101000a900473ffffffffffffffffffffffffffffffffffffffff169050816000806101000a81548173ffffffffffffffffffffffffffffffffffffffff021916908373ffffffffffffffffffffffffffffffffffffffff1602179055508173ffffffffffffffffffffffffffffffffffffffff168173ffffffffffffffffffffffffffffffffffffffff167f8be0079c531659141344cd1fd0a4f28419497f9722a3daafe3b4186f6b6457e060405160405180910390a35050565b600080fd5b600073ffffffffffffffffffffffffffffffffffffffff82169050919050565b60006126f4826126c9565b9050919050565b6000612706826126e9565b9050919050565b612716816126fb565b811461272157600080fd5b50565b6000813590506127338161270d565b92915050565b6000819050919050565b61274c81612739565b811461275757600080fd5b50565b60008135905061276981612743565b92915050565b60008060408385031215612786576127856126c4565b5b600061279485828601612724565b92505060206127a58582860161275a565b9150509250929050565b6127b881612739565b82525050565b60006020820190506127d360008301846127af565b92915050565b600080600080608085870312156127f3576127f26126c4565b5b600061280187828801612724565b94505060206128128782880161275a565b93505060406128238782880161275a565b92505060606128348782880161275a565b91505092959194509250565b600061284b826126c9565b9050919050565b61285b81612840565b82525050565b600060a08201905061287660008301886127af565b61288360208301876127af565b61289060408301866127af565b61289d6060830185612852565b6128aa60808301846127af565b9695505050505050565b60006020820190506128c96000830184612852565b92915050565b60008115159050919050565b6128e4816128cf565b82525050565b60006020820190506128ff60008301846128db565b92915050565b60006020828403121561291b5761291a6126c4565b5b60006129298482850161275a565b91505092915050565b600060208284031215612948576129476126c4565b5b600061295684828501612724565b91505092915050565b61296881612840565b811461297357600080fd5b50565b6000813590506129858161295f565b92915050565b6000602082840312156129a1576129a06126c4565b5b60006129af84828501612976565b91505092915050565b600082825260208201905092915050565b7f61756374696f6e206d757374206265206f70656e656400000000000000000000600082015250565b60006129ff6016836129b8565b9150612a0a826129c9565b602082019050919050565b60006020820190508181036000830152612a2e816129f2565b9050919050565b7f4e487b7100000000000000000000000000000000000000000000000000000000600052601160045260246000fd5b6000612a6f82612739565b9150612a7a83612739565b9250817fffffffffffffffffffffffffffffffffffffffffffffffffffffffffffffffff0483118215151615612ab357612ab2612a35565b5b828202905092915050565b7f4e487b7100000000000000000000000000000000000000000000000000000000600052601260045260246000fd5b6000612af882612739565b9150612b0383612739565b925082612b1357612b12612abe565b5b828204905092915050565b7f61756374696f6e206861736e277420656e646564207965740000000000000000600082015250565b6000612b546018836129b8565b9150612b5f82612b1e565b602082019050919050565b60006020820190508181036000830152612b8381612b47565b9050919050565b7f6f6e6c792061756374696f6e2077696e6e65722063616e20636c61696d20726560008201527f7761726400000000000000000000000000000000000000000000000000000000602082015250565b6000612be66024836129b8565b9150612bf182612b8a565b604082019050919050565b60006020820190508181036000830152612c1581612bd9565b9050919050565b600061ffff82169050919050565b612c3381612c1c565b8114612c3e57600080fd5b50565b600081519050612c5081612c2a565b92915050565b600060208284031215612c6c57612c6b6126c4565b5b6000612c7a84828501612c41565b91505092915050565b600081905092915050565b50565b6000612c9e600083612c83565b9150612ca982612c8e565b600082019050919050565b6000612cbf82612c91565b9150819050919050565b7f546f6b656d20636f6e7472616374206469646e27742070617920726f61796c7460008201527f6965730000000000000000000000000000000000000000000000000000000000602082015250565b6000612d256023836129b8565b9150612d3082612cc9565b604082019050919050565b60006020820190508181036000830152612d5481612d18565b9050919050565b6000612d6682612739565b9150612d7183612739565b925082821015612d8457612d83612a35565b5b828203905092915050565b7f6f776e6572206861736e2774206265656e207061696400000000000000000000600082015250565b6000612dc56016836129b8565b9150612dd082612d8f565b602082019050919050565b60006020820190508181036000830152612df481612db8565b9050919050565b6000819050919050565b6000612e20612e1b612e16846126c9565b612dfb565b6126c9565b9050919050565b6000612e3282612e05565b9050919050565b6000612e4482612e27565b9050919050565b612e5481612e39565b82525050565b6000608082019050612e6f6000830187612e4b565b612e7c60208301866127af565b612e896040830185612852565b612e9660608301846127af565b95945050505050565b6000606082019050612eb46000830186612852565b612ec16020830185612852565b612ece60408301846127af565b949350505050565b7f636f6c6c656374696f6e206973206e6f74207265676973746572656400000000600082015250565b6000612f0c601c836129b8565b9150612f1782612ed6565b602082019050919050565b60006020820190508181036000830152612f3b81612eff565b9050919050565b600081519050612f518161295f565b92915050565b600060208284031215612f6d57612f6c6126c4565b5b6000612f7b84828501612f42565b91505092915050565b7f73656e646572206973206e6f7420746f6b656e206f776e657200000000000000600082015250565b6000612fba6019836129b8565b9150612fc582612f84565b602082019050919050565b60006020820190508181036000830152612fe981612fad565b9050919050565b7f61756374696f6e2074696d652063616e6e6f742062652062696767657220746860008201527f616e203330206461797300000000000000000000000000000000000000000000602082015250565b600061304c602a836129b8565b915061305782612ff0565b604082019050919050565b6000602082019050818103600083015261307b8161303f565b9050919050565b60006040820190506130976000830185612852565b6130a46020830184612852565b9392505050565b6130b4816128cf565b81146130bf57600080fd5b50565b6000815190506130d1816130ab565b92915050565b6000602082840312156130ed576130ec6126c4565b5b60006130fb848285016130c2565b91505092915050565b7f636f6c6c656374696f6e206973206e6f7420617070726f76656420666f72206d60008201527f61726b6574706c61636500000000000000000000000000000000000000000000602082015250565b6000613160602a836129b8565b915061316b82613104565b604082019050919050565b6000602082019050818103600083015261318f81613153565b9050919050565b7f73656e646572206973206e6f7420706179696e6720656e6f756768206c69737460008201527f696e672066656500000000000000000000000000000000000000000000000000602082015250565b60006131f26027836129b8565b91506131fd82613196565b604082019050919050565b60006020820190508181036000830152613221816131e5565b9050919050565b600061323382612739565b915061323e83612739565b9250827fffffffffffffffffffffffffffffffffffffffffffffffffffffffffffffffff0382111561327357613272612a35565b5b828201905092915050565b7f466c6174466565206861736e2774206265207061696400000000000000000000600082015250565b60006132b46016836129b8565b91506132bf8261327e565b602082019050919050565b600060208201905081810360008301526132e3816132a7565b9050919050565b60006080820190506132ff6000830187612e4b565b61330c60208301866127af565b61331960408301856127af565b6133266060830184612852565b95945050505050565b600060a0820190506133446000830188612e4b565b61335160208301876127af565b61335e60408301866127af565b61336b60608301856127af565b6133786080830184612852565b9695505050505050565b7f4f776e61626c653a2063616c6c6572206973206e6f7420746865206f776e6572600082015250565b60006133b86020836129b8565b91506133c382613382565b602082019050919050565b600060208201905081810360008301526133e7816133ab565b9050919050565b7f666565206d757374206265203e20302026203c3d203530300000000000000000600082015250565b60006134246018836129b8565b915061342f826133ee565b602082019050919050565b6000602082019050818103600083015261345381613417565b9050919050565b600060208201905061346f6000830184612e4b565b92915050565b600060408201905061348a6000830185612e4b565b61349760208301846127af565b9392505050565b7f6f6e6c792061756374696f6e2063726561746f722063616e2063616e63656c2060008201527f6974000000000000000000000000000000000000000000000000000000000000602082015250565b60006134fa6022836129b8565b91506135058261349e565b604082019050919050565b60006020820190508181036000830152613529816134ed565b9050919050565b7f61756374696f6e2077697468206269642063616e6e6f742062652063616e636560008201527f6c6c656400000000000000000000000000000000000000000000000000000000602082015250565b600061358c6024836129b8565b915061359782613530565b604082019050919050565b600060208201905081810360008301526135bb8161357f565b9050919050565b60006060820190506135d76000830186612e4b565b6135e460208301856127af565b6135f16040830184612852565b949350505050565b7f61756374696f6e206973206e6f74206163746976650000000000000000000000600082015250565b600061362f6015836129b8565b915061363a826135f9565b602082019050919050565b6000602082019050818103600083015261365e81613622565b9050919050565b7f6269642076616c7565206e6f742073756666696369656e740000000000000000600082015250565b600061369b6018836129b8565b91506136a682613665565b602082019050919050565b600060208201905081810360008301526136ca8161368e565b9050919050565b7f426964206861736e27742062652072657475726e656400000000000000000000600082015250565b60006137076016836129b8565b9150613712826136d1565b602082019050919050565b60006020820190508181036000830152613736816136fa565b9050919050565b7f4f776e61626c653a206e6577206f776e657220697320746865207a65726f206160008201527f6464726573730000000000000000000000000000000000000000000000000000602082015250565b60006137996026836129b8565b91506137a48261373d565b604082019050919050565b600060208201905081810360008301526137c88161378c565b905091905056fea2646970667358221220c3b6963c1ab422ba2bdd2d2c899f819367fa150c6dfababb32352cd88c2f47c964736f6c634300080a0033",
  "immutableReferences": {},
  "source": "// SPDX-License-Identifier: MARKLAR\npragma solidity 0.8.10;\n\nimport \"openzeppelin-solidity/contracts/access/Ownable.sol\";\nimport \"./MockNFT.sol\";\n\ncontract Marketplace is Ownable {\n\n    mapping(address => CollectionInfo) private _collections;\n    uint256 private _flatFee = 1000 wei;\n\n    struct CollectionInfo {\n        MockNFT collection;\n        uint256 fee;\n        mapping(uint256 => AuctionInfo) auctions;\n    }\n\n    struct AuctionInfo {\n        uint256 tokenId;\n        address tokenOwner;\n        uint256 started;\n        uint256 ends;\n        uint256 startPrice;\n        address bidder;\n        uint256 bidderValue;\n    }\n\n    event CollectionRegistered(MockNFT collection);\n    event CollectionFeeSet(MockNFT collection, uint256 fee);\n    event FlatFeeSet(uint256 flatFee);\n    event AuctionCreated(MockNFT collection, uint256 tokenId, uint256 startPrice, uint256 auctionTimeSeconds, address creator);\n    event AuctionCancelled(MockNFT collection, uint256 tokenId, address creator);\n    event AuctionWon(MockNFT collection, uint256 tokenId, address winner, uint256 winningBid);\n    event BidReturned(MockNFT collection, uint256 tokenId, address bidder, uint256 bid);\n    event BidPlaced(MockNFT collection, uint256 tokenId, address bidder, uint256 bid);\n    event OwnerPaid(MockNFT collection, uint256 tokenId, address owner, uint256 payout);\n    event FlatFeePaid(MockNFT collection, uint256 tokenId, uint256 flatFee, address payer);\n\n    \n    modifier onlyRegisteredCollections(MockNFT collection) {\n        require(_collections[address(collection)].fee > 0, \"collection is not registered\");\n        _;\n    }\n\n    modifier validFee(uint256 fee) {\n        require(fee > 0 && fee <= 500, \"fee must be > 0 & <= 500\");\n        _;\n    }\n\n    modifier validCollection(MockNFT collection) {\n        // TODO: validate address is MockNFT contract\n        _;\n    }\n\n    // fee - fee in basis points paid for each auction (fee=100 means 1%)\n    function registerCollection(MockNFT collection, uint256 fee) public onlyOwner validFee(fee) validCollection(collection) {\n        CollectionInfo storage collectionInfo = _collections[address(collection)];\n        collectionInfo.collection = collection;\n        collectionInfo.fee = fee;\n\n        emit CollectionRegistered(collection);\n        emit CollectionFeeSet(collection, fee);\n    }\n\n    function collectionRegistered(MockNFT collection) public view returns (bool) {\n        return _collections[address(collection)].fee > 0;\n    }\n\n    function setCollectionFee(MockNFT collection, uint256 fee) public onlyOwner validFee(fee) onlyRegisteredCollections(collection) {\n        if (_collections[address(collection)].fee != fee) {\n            _collections[address(collection)].fee=fee;\n            emit CollectionFeeSet(collection, fee);\n       }\n    }\n\n    function getCollectionFee(MockNFT collection) public view onlyRegisteredCollections(collection) returns (uint256)  {\n        return _collections[address(collection)].fee;\n    }\n\n    // flatFee - fee in wei paid for each listing\n    function setFlatListingFee(uint256 flatFee) public onlyOwner {\n        _flatFee = flatFee;\n        emit FlatFeeSet(flatFee);\n    }\n\n    function getFlatListngFee() public view returns (uint256) {\n        return _flatFee;\n    }\n\n    /** ============================\n    * ===== AUCTION\n    * ============================ */\n    function openAuction(MockNFT collection, uint256 tokenId, uint256 startPrice, uint256 auctionTimeSeconds) public payable onlyRegisteredCollections(collection) {\n        require(collection.ownerOf(tokenId) == msg.sender, \"sender is not token owner\");\n        require(auctionTimeSeconds < 30 days,\"auction time cannot be bigger than 30 days\");\n        require(collection.isApprovedForAll(msg.sender, address(this)), \"collection is not approved for marketplace\");\n        require(msg.value >= _flatFee, \"sender is not paying enough listing fee\");\n\n        _collections[address(collection)].auctions[tokenId] = AuctionInfo({\n            tokenId: tokenId,\n            tokenOwner: msg.sender,\n            started: block.timestamp,\n            ends: block.timestamp + auctionTimeSeconds,\n            startPrice: startPrice,\n            bidder: address(0),\n            bidderValue: 0\n        });\n        \n        (bool flatFeePaid, /* bytes memory data */) = payable(msg.sender).call{value: msg.value - _flatFee}(\"\");\n        require(flatFeePaid, \"FlatFee hasn't be paid\");\n        emit FlatFeePaid(collection, tokenId, _flatFee, msg.sender);\n\n        collection.transferFrom(msg.sender, address(this), tokenId);\n        emit AuctionCreated(collection, tokenId, startPrice, auctionTimeSeconds, msg.sender);\n    }\n\n    function auctionOpened(MockNFT collection, uint256 tokenId) public view returns (bool) {\n        return _collections[address(collection)].auctions[tokenId].startPrice > 0;\n    }\n\n    function getCurrentBid(MockNFT collection, uint256 tokenId) public view returns (uint256) {\n        require(auctionOpened(collection, tokenId), \"auction must be opened\");\n        return _collections[address(collection)].auctions[tokenId].bidderValue;   \n    }\n\n    function getMinimalBid(MockNFT collection, uint256 tokenId) public view returns (uint256) {\n        require(auctionOpened(collection, tokenId), \"auction must be opened\");\n        AuctionInfo memory auctionInfo = _collections[address(collection)].auctions[tokenId];\n        uint256 minBid = auctionInfo.startPrice;\n        if (auctionInfo.bidderValue > 0) {\n            minBid = 11 * auctionInfo.bidderValue / 10;\n        }\n        return minBid;\n    }\n\n    function getAuctionBid(MockNFT collection, uint256 tokenId) public view returns (uint256) {\n        require(auctionOpened(collection, tokenId), \"auction must be opened\");\n        return _collections[address(collection)].auctions[tokenId].bidderValue;   \n    }\n\n    function getAuction(MockNFT collection, uint256 tokenId) public view \n        returns (uint256 started, uint256 ends, uint256 startPrice,  address bidder, uint256 bidderValue) {\n            require(auctionOpened(collection, tokenId), \"auction must be opened\");\n            AuctionInfo memory auctionInfo = _collections[address(collection)].auctions[tokenId];\n            started = auctionInfo.started;\n            ends= auctionInfo.ends;\n            startPrice = auctionInfo.startPrice;\n            bidder = auctionInfo.bidder;\n            bidderValue = auctionInfo.bidderValue;\n    }\n\n    function cancelAuction(MockNFT collection, uint256 tokenId) public onlyRegisteredCollections(collection) {\n        AuctionInfo memory auctionInfo = _collections[address(collection)].auctions[tokenId];\n        require(auctionInfo.tokenOwner == msg.sender, \"only auction creator can cancel it\");\n        require(auctionInfo.bidderValue == 0, \"auction with bid cannot be cancelled\");\n\n        delete _collections[address(collection)].auctions[tokenId];\n\n        collection.transferFrom(address(this), msg.sender, tokenId);\n        emit AuctionCancelled(collection, tokenId, msg.sender);\n    }\n\n    function placeBid(MockNFT collection, uint256 tokenId) public payable onlyRegisteredCollections(collection) {\n        AuctionInfo memory auctionInfo = _collections[address(collection)].auctions[tokenId];\n        require(auctionInfo.started > 0 && block.timestamp < auctionInfo.ends, \"auction is not active\");\n\n        uint256 minBid = getMinimalBid(collection, tokenId);\n        require(msg.value >= minBid, \"bid value not sufficient\");\n\n        if (auctionInfo.bidder != address(0)) {\n            (bool bidReturned, /* bytes memory data */) = payable(auctionInfo.bidder).call{value: auctionInfo.bidderValue}(\"\");\n            require(bidReturned, \"Bid hasn't be returned\");\n            emit BidReturned(collection, tokenId, auctionInfo.bidder, auctionInfo.bidderValue);\n        }\n        _collections[address(collection)].auctions[tokenId].bidder = msg.sender;\n        _collections[address(collection)].auctions[tokenId].bidderValue= msg.value;\n        emit BidPlaced(collection, tokenId, msg.sender, msg.value);\n    }\n\n    function claimReward(MockNFT collection, uint256 tokenId) public payable {\n        AuctionInfo memory auctionInfo = _collections[address(collection)].auctions[tokenId];\n        require(block.timestamp > auctionInfo.ends, \"auction hasn't ended yet\");\n        require(msg.sender == auctionInfo.bidder, \"only auction winner can claim reward\");\n\n        uint256 payToCreators = auctionInfo.bidderValue * collection.getRoyalties() / 10000;\n        (bool creatorsPaid, /* bytes memory data */) = payable(address(collection)).call{value: payToCreators}(\"\");\n        require(creatorsPaid, \"Tokem contract didn't pay roaylties\");\n        uint256 paidToMarketplace = auctionInfo.bidderValue * _collections[address(collection)].fee / 10000;\n        uint256 payToOwner = auctionInfo.bidderValue - payToCreators - paidToMarketplace;\n\n        (bool ownerPaid, /* bytes memory data */) = payable(auctionInfo.tokenOwner).call{value: payToOwner}(\"\");\n        require(ownerPaid, \"owner hasn't been paid\");\n        emit OwnerPaid(collection, tokenId, auctionInfo.tokenOwner, payToOwner);\n\n        delete _collections[address(collection)].auctions[tokenId];\n\n        collection.transferFrom(address(this), msg.sender, tokenId);\n        emit AuctionWon(collection, tokenId, msg.sender, auctionInfo.bidderValue);\n    }   \n\n    // TODO: owner should be able to withdraw fees marketplace gathered \n    // note: fees will be lower than contract's balance because of active bids which are held by contract\n\n}",
  "sourcePath": "/Users/jlochman/Documents/Consensys/blockchain-developer-bootcamp-final-project/contracts/Marketplace.sol",
  "compiler": {
    "name": "solc",
    "version": "0.8.10+commit.fc410830.Emscripten.clang"
  },
  "schemaVersion": "3.4.3",
  "updatedAt": "2021-11-23T17:01:15.342Z",
  "networkType": "ethereum",
  "devdoc": {
    "kind": "dev",
    "methods": {
      "owner()": {
        "details": "Returns the address of the current owner."
      },
      "renounceOwnership()": {
        "details": "Leaves the contract without owner. It will not be possible to call `onlyOwner` functions anymore. Can only be called by the current owner. NOTE: Renouncing ownership will leave the contract without an owner, thereby removing any functionality that is only available to the owner."
      },
      "transferOwnership(address)": {
        "details": "Transfers ownership of the contract to a new account (`newOwner`). Can only be called by the current owner."
      }
    },
    "version": 1
  },
  "userdoc": {
    "kind": "user",
    "methods": {
      "openAuction(address,uint256,uint256,uint256)": {
        "notice": "============================ ===== AUCTION ============================ "
      }
    },
    "version": 1
  }
}