{
  "contractName": "MockNFT",
  "abi": [
    {
      "inputs": [],
      "stateMutability": "nonpayable",
      "type": "constructor"
    },
    {
      "anonymous": false,
      "inputs": [
        {
          "indexed": true,
          "internalType": "address",
          "name": "owner",
          "type": "address"
        },
        {
          "indexed": true,
          "internalType": "address",
          "name": "approved",
          "type": "address"
        },
        {
          "indexed": true,
          "internalType": "uint256",
          "name": "tokenId",
          "type": "uint256"
        }
      ],
      "name": "Approval",
      "type": "event"
    },
    {
      "anonymous": false,
      "inputs": [
        {
          "indexed": true,
          "internalType": "address",
          "name": "owner",
          "type": "address"
        },
        {
          "indexed": true,
          "internalType": "address",
          "name": "operator",
          "type": "address"
        },
        {
          "indexed": false,
          "internalType": "bool",
          "name": "approved",
          "type": "bool"
        }
      ],
      "name": "ApprovalForAll",
      "type": "event"
    },
    {
      "anonymous": false,
      "inputs": [
        {
          "indexed": false,
          "internalType": "uint256",
          "name": "tokenId",
          "type": "uint256"
        }
      ],
      "name": "CancelOfer",
      "type": "event"
    },
    {
      "anonymous": false,
      "inputs": [
        {
          "indexed": false,
          "internalType": "uint256",
          "name": "tokenId",
          "type": "uint256"
        },
        {
          "indexed": false,
          "internalType": "uint256",
          "name": "price",
          "type": "uint256"
        },
        {
          "indexed": false,
          "internalType": "address",
          "name": "buyer",
          "type": "address"
        },
        {
          "indexed": false,
          "internalType": "address",
          "name": "seller",
          "type": "address"
        }
      ],
      "name": "OfferAccepted",
      "type": "event"
    },
    {
      "anonymous": false,
      "inputs": [
        {
          "indexed": false,
          "internalType": "uint256",
          "name": "tokenId",
          "type": "uint256"
        },
        {
          "indexed": false,
          "internalType": "uint256",
          "name": "sellPrice",
          "type": "uint256"
        }
      ],
      "name": "OfferCreated",
      "type": "event"
    },
    {
      "anonymous": false,
      "inputs": [
        {
          "indexed": false,
          "internalType": "uint256",
          "name": "tokenId",
          "type": "uint256"
        },
        {
          "indexed": false,
          "internalType": "uint256",
          "name": "sellPrice",
          "type": "uint256"
        }
      ],
      "name": "OfferUpdated",
      "type": "event"
    },
    {
      "anonymous": false,
      "inputs": [
        {
          "indexed": false,
          "internalType": "address",
          "name": "owner",
          "type": "address"
        },
        {
          "indexed": false,
          "internalType": "uint256",
          "name": "amount",
          "type": "uint256"
        }
      ],
      "name": "OwnerPayment",
      "type": "event"
    },
    {
      "anonymous": false,
      "inputs": [
        {
          "indexed": true,
          "internalType": "address",
          "name": "previousOwner",
          "type": "address"
        },
        {
          "indexed": true,
          "internalType": "address",
          "name": "newOwner",
          "type": "address"
        }
      ],
      "name": "OwnershipTransferred",
      "type": "event"
    },
    {
      "anonymous": false,
      "inputs": [
        {
          "indexed": false,
          "internalType": "address",
          "name": "creator",
          "type": "address"
        },
        {
          "indexed": false,
          "internalType": "uint256",
          "name": "roaylty",
          "type": "uint256"
        }
      ],
      "name": "RyoaltyPayment",
      "type": "event"
    },
    {
      "anonymous": false,
      "inputs": [
        {
          "indexed": false,
          "internalType": "address",
          "name": "creator",
          "type": "address"
        },
        {
          "indexed": false,
          "internalType": "uint16",
          "name": "share",
          "type": "uint16"
        }
      ],
      "name": "SetRoyalty",
      "type": "event"
    },
    {
      "anonymous": false,
      "inputs": [
        {
          "indexed": false,
          "internalType": "uint256",
          "name": "msg",
          "type": "uint256"
        }
      ],
      "name": "Test",
      "type": "event"
    },
    {
      "anonymous": false,
      "inputs": [
        {
          "indexed": true,
          "internalType": "address",
          "name": "from",
          "type": "address"
        },
        {
          "indexed": true,
          "internalType": "address",
          "name": "to",
          "type": "address"
        },
        {
          "indexed": true,
          "internalType": "uint256",
          "name": "tokenId",
          "type": "uint256"
        }
      ],
      "name": "Transfer",
      "type": "event"
    },
    {
      "inputs": [
        {
          "internalType": "address",
          "name": "to",
          "type": "address"
        },
        {
          "internalType": "uint256",
          "name": "tokenId",
          "type": "uint256"
        }
      ],
      "name": "approve",
      "outputs": [],
      "stateMutability": "nonpayable",
      "type": "function"
    },
    {
      "inputs": [
        {
          "internalType": "address",
          "name": "owner",
          "type": "address"
        }
      ],
      "name": "balanceOf",
      "outputs": [
        {
          "internalType": "uint256",
          "name": "",
          "type": "uint256"
        }
      ],
      "stateMutability": "view",
      "type": "function",
      "constant": true
    },
    {
      "inputs": [
        {
          "internalType": "uint256",
          "name": "tokenId",
          "type": "uint256"
        }
      ],
      "name": "getApproved",
      "outputs": [
        {
          "internalType": "address",
          "name": "",
          "type": "address"
        }
      ],
      "stateMutability": "view",
      "type": "function",
      "constant": true
    },
    {
      "inputs": [
        {
          "internalType": "address",
          "name": "owner",
          "type": "address"
        },
        {
          "internalType": "address",
          "name": "operator",
          "type": "address"
        }
      ],
      "name": "isApprovedForAll",
      "outputs": [
        {
          "internalType": "bool",
          "name": "",
          "type": "bool"
        }
      ],
      "stateMutability": "view",
      "type": "function",
      "constant": true
    },
    {
      "inputs": [],
      "name": "name",
      "outputs": [
        {
          "internalType": "string",
          "name": "",
          "type": "string"
        }
      ],
      "stateMutability": "view",
      "type": "function",
      "constant": true
    },
    {
      "inputs": [],
      "name": "owner",
      "outputs": [
        {
          "internalType": "address",
          "name": "",
          "type": "address"
        }
      ],
      "stateMutability": "view",
      "type": "function",
      "constant": true
    },
    {
      "inputs": [
        {
          "internalType": "uint256",
          "name": "tokenId",
          "type": "uint256"
        }
      ],
      "name": "ownerOf",
      "outputs": [
        {
          "internalType": "address",
          "name": "",
          "type": "address"
        }
      ],
      "stateMutability": "view",
      "type": "function",
      "constant": true
    },
    {
      "inputs": [],
      "name": "renounceOwnership",
      "outputs": [],
      "stateMutability": "nonpayable",
      "type": "function"
    },
    {
      "inputs": [
        {
          "internalType": "address",
          "name": "from",
          "type": "address"
        },
        {
          "internalType": "address",
          "name": "to",
          "type": "address"
        },
        {
          "internalType": "uint256",
          "name": "tokenId",
          "type": "uint256"
        }
      ],
      "name": "safeTransferFrom",
      "outputs": [],
      "stateMutability": "nonpayable",
      "type": "function"
    },
    {
      "inputs": [
        {
          "internalType": "address",
          "name": "from",
          "type": "address"
        },
        {
          "internalType": "address",
          "name": "to",
          "type": "address"
        },
        {
          "internalType": "uint256",
          "name": "tokenId",
          "type": "uint256"
        },
        {
          "internalType": "bytes",
          "name": "_data",
          "type": "bytes"
        }
      ],
      "name": "safeTransferFrom",
      "outputs": [],
      "stateMutability": "nonpayable",
      "type": "function"
    },
    {
      "inputs": [
        {
          "internalType": "address",
          "name": "operator",
          "type": "address"
        },
        {
          "internalType": "bool",
          "name": "approved",
          "type": "bool"
        }
      ],
      "name": "setApprovalForAll",
      "outputs": [],
      "stateMutability": "nonpayable",
      "type": "function"
    },
    {
      "inputs": [
        {
          "internalType": "bytes4",
          "name": "interfaceId",
          "type": "bytes4"
        }
      ],
      "name": "supportsInterface",
      "outputs": [
        {
          "internalType": "bool",
          "name": "",
          "type": "bool"
        }
      ],
      "stateMutability": "view",
      "type": "function",
      "constant": true
    },
    {
      "inputs": [],
      "name": "symbol",
      "outputs": [
        {
          "internalType": "string",
          "name": "",
          "type": "string"
        }
      ],
      "stateMutability": "view",
      "type": "function",
      "constant": true
    },
    {
      "inputs": [
        {
          "internalType": "uint256",
          "name": "tokenId",
          "type": "uint256"
        }
      ],
      "name": "tokenURI",
      "outputs": [
        {
          "internalType": "string",
          "name": "",
          "type": "string"
        }
      ],
      "stateMutability": "view",
      "type": "function",
      "constant": true
    },
    {
      "inputs": [
        {
          "internalType": "address",
          "name": "from",
          "type": "address"
        },
        {
          "internalType": "address",
          "name": "to",
          "type": "address"
        },
        {
          "internalType": "uint256",
          "name": "tokenId",
          "type": "uint256"
        }
      ],
      "name": "transferFrom",
      "outputs": [],
      "stateMutability": "nonpayable",
      "type": "function"
    },
    {
      "inputs": [
        {
          "internalType": "address",
          "name": "newOwner",
          "type": "address"
        }
      ],
      "name": "transferOwnership",
      "outputs": [],
      "stateMutability": "nonpayable",
      "type": "function"
    },
    {
      "stateMutability": "payable",
      "type": "receive",
      "payable": true
    },
    {
      "inputs": [
        {
          "internalType": "address",
          "name": "to",
          "type": "address"
        }
      ],
      "name": "safeMint",
      "outputs": [],
      "stateMutability": "nonpayable",
      "type": "function"
    },
    {
      "inputs": [
        {
          "internalType": "address[]",
          "name": "creators",
          "type": "address[]"
        },
        {
          "internalType": "uint16[]",
          "name": "royalties",
          "type": "uint16[]"
        }
      ],
      "name": "setRoyalties",
      "outputs": [],
      "stateMutability": "nonpayable",
      "type": "function"
    },
    {
      "inputs": [
        {
          "internalType": "address",
          "name": "creator",
          "type": "address"
        }
      ],
      "name": "getRoyalty",
      "outputs": [
        {
          "internalType": "uint16",
          "name": "",
          "type": "uint16"
        }
      ],
      "stateMutability": "view",
      "type": "function",
      "constant": true
    },
    {
      "inputs": [],
      "name": "getRoyalties",
      "outputs": [
        {
          "internalType": "uint16",
          "name": "",
          "type": "uint16"
        }
      ],
      "stateMutability": "view",
      "type": "function",
      "constant": true
    },
    {
      "inputs": [
        {
          "internalType": "uint256",
          "name": "tokenId",
          "type": "uint256"
        },
        {
          "internalType": "uint256",
          "name": "sellPrice",
          "type": "uint256"
        }
      ],
      "name": "setOfferPrice",
      "outputs": [],
      "stateMutability": "nonpayable",
      "type": "function"
    },
    {
      "inputs": [
        {
          "internalType": "uint256",
          "name": "tokenId",
          "type": "uint256"
        }
      ],
      "name": "getOfferPrice",
      "outputs": [
        {
          "internalType": "uint256",
          "name": "",
          "type": "uint256"
        }
      ],
      "stateMutability": "view",
      "type": "function",
      "constant": true
    },
    {
      "inputs": [
        {
          "internalType": "uint256",
          "name": "tokenId",
          "type": "uint256"
        }
      ],
      "name": "cancelOffer",
      "outputs": [],
      "stateMutability": "nonpayable",
      "type": "function"
    },
    {
      "inputs": [
        {
          "internalType": "uint256",
          "name": "tokenId",
          "type": "uint256"
        }
      ],
      "name": "acceptOffer",
      "outputs": [],
      "stateMutability": "payable",
      "type": "function",
      "payable": true
    },
    {
      "inputs": [
        {
          "internalType": "uint256",
          "name": "reward",
          "type": "uint256"
        }
      ],
      "name": "rewardCreators",
      "outputs": [],
      "stateMutability": "payable",
      "type": "function",
      "payable": true
    }
  ],
  "bytecode": "0x60806040523480156200001157600080fd5b506040518060400160405280600781526020017f4d6f636b4e4654000000000000000000000000000000000000000000000000008152506040518060400160405280600481526020017f4d4f434b00000000000000000000000000000000000000000000000000000000815250816000908051906020019062000096929190620001a6565b508060019080519060200190620000af929190620001a6565b505050620000d2620000c6620000d860201b60201c565b620000e060201b60201c565b620002bb565b600033905090565b6000600660009054906101000a900473ffffffffffffffffffffffffffffffffffffffff16905081600660006101000a81548173ffffffffffffffffffffffffffffffffffffffff021916908373ffffffffffffffffffffffffffffffffffffffff1602179055508173ffffffffffffffffffffffffffffffffffffffff168173ffffffffffffffffffffffffffffffffffffffff167f8be0079c531659141344cd1fd0a4f28419497f9722a3daafe3b4186f6b6457e060405160405180910390a35050565b828054620001b49062000285565b90600052602060002090601f016020900481019282620001d8576000855562000224565b82601f10620001f357805160ff191683800117855562000224565b8280016001018555821562000224579182015b828111156200022357825182559160200191906001019062000206565b5b50905062000233919062000237565b5090565b5b808211156200025257600081600090555060010162000238565b5090565b7f4e487b7100000000000000000000000000000000000000000000000000000000600052602260045260246000fd5b600060028204905060018216806200029e57607f821691505b60208210811415620002b557620002b462000256565b5b50919050565b6149af80620002cb6000396000f3fe60806040526004361061016a5760003560e01c8063715018a6116100d1578063c815729d1161008a578063eb61e37111610064578063eb61e3711461061b578063ef706adf14610658578063f2fde38b14610681578063f8d54fef146106aa57610251565b8063c815729d14610585578063c87b56dd146105a1578063e985e9c5146105de57610251565b8063715018a61461049d5780638267cbc5146104b45780638da5cb5b146104dd57806395d89b4114610508578063a22cb46514610533578063b88d4fde1461055c57610251565b806331d035941161012357806331d035941461036957806333df048e146103a657806340d097c3146103d157806342842e0e146103fa5780636352211e1461042357806370a082311461046057610251565b806301ffc9a71461025657806306fdde0314610293578063081812fc146102be578063095ea7b3146102fb57806323b872dd146103245780632a131a9d1461034d57610251565b36610251576000600a60009054906101000a900461ffff1661ffff1614156102455760006101966106d3565b73ffffffffffffffffffffffffffffffffffffffff16346040516101b990612d03565b60006040518083038185875af1925050503d80600081146101f6576040519150601f19603f3d011682016040523d82523d6000602084013e6101fb565b606091505b505090508061023f576040517f08c379a000000000000000000000000000000000000000000000000000000000815260040161023690612d75565b60405180910390fd5b5061024f565b61024e346106fd565b5b005b600080fd5b34801561026257600080fd5b5061027d60048036038101906102789190612e01565b610b37565b60405161028a9190612e49565b60405180910390f35b34801561029f57600080fd5b506102a8610c19565b6040516102b59190612eec565b60405180910390f35b3480156102ca57600080fd5b506102e560048036038101906102e09190612f44565b610cab565b6040516102f29190612fb2565b60405180910390f35b34801561030757600080fd5b50610322600480360381019061031d9190612ff9565b610d30565b005b34801561033057600080fd5b5061034b60048036038101906103469190613039565b610e48565b005b61036760048036038101906103629190612f44565b6106fd565b005b34801561037557600080fd5b50610390600480360381019061038b9190612f44565b610ea8565b60405161039d919061309b565b60405180910390f35b3480156103b257600080fd5b506103bb610ec5565b6040516103c891906130d3565b60405180910390f35b3480156103dd57600080fd5b506103f860048036038101906103f391906130ee565b610edd565b005b34801561040657600080fd5b50610421600480360381019061041c9190613039565b610f7f565b005b34801561042f57600080fd5b5061044a60048036038101906104459190612f44565b610f9f565b6040516104579190612fb2565b60405180910390f35b34801561046c57600080fd5b50610487600480360381019061048291906130ee565b611051565b604051610494919061309b565b60405180910390f35b3480156104a957600080fd5b506104b2611109565b005b3480156104c057600080fd5b506104db60048036038101906104d69190613352565b611191565b005b3480156104e957600080fd5b506104f26106d3565b6040516104ff9190612fb2565b60405180910390f35b34801561051457600080fd5b5061051d61158f565b60405161052a9190612eec565b60405180910390f35b34801561053f57600080fd5b5061055a600480360381019061055591906133f6565b611621565b005b34801561056857600080fd5b50610583600480360381019061057e91906134eb565b6117a2565b005b61059f600480360381019061059a9190612f44565b611804565b005b3480156105ad57600080fd5b506105c860048036038101906105c39190612f44565b611c0a565b6040516105d59190612eec565b60405180910390f35b3480156105ea57600080fd5b506106056004803603810190610600919061356e565b611cb1565b6040516106129190612e49565b60405180910390f35b34801561062757600080fd5b50610642600480360381019061063d91906130ee565b611d45565b60405161064f91906130d3565b60405180910390f35b34801561066457600080fd5b5061067f600480360381019061067a9190612f44565b611d9c565b005b34801561068d57600080fd5b506106a860048036038101906106a391906130ee565b611e86565b005b3480156106b657600080fd5b506106d160048036038101906106cc91906135ae565b611f7e565b005b6000600660009054906101000a900473ffffffffffffffffffffffffffffffffffffffff16905090565b6000600a60009054906101000a900461ffff1661ffff161415610755576040517f08c379a000000000000000000000000000000000000000000000000000000000815260040161074c9061363a565b60405180910390fd5b600080600190505b6009805490508160ff1610156109b8576000600a60009054906101000a900461ffff1661ffff166008600060098560ff168154811061079f5761079e61365a565b5b9060005260206000200160009054906101000a900473ffffffffffffffffffffffffffffffffffffffff1673ffffffffffffffffffffffffffffffffffffffff1673ffffffffffffffffffffffffffffffffffffffff16815260200190815260200160002060009054906101000a900461ffff1661ffff168561082291906136b8565b61082c9190613741565b9050600060098360ff16815481106108475761084661365a565b5b9060005260206000200160009054906101000a900473ffffffffffffffffffffffffffffffffffffffff1673ffffffffffffffffffffffffffffffffffffffff168260405161089590612d03565b60006040518083038185875af1925050503d80600081146108d2576040519150601f19603f3d011682016040523d82523d6000602084013e6108d7565b606091505b505090508061091b576040517f08c379a0000000000000000000000000000000000000000000000000000000008152600401610912906137e4565b60405180910390fd5b7f41d3b03cd422dfb1d6cde62ed4c0e8e6693e2bcd92bd4e5f92b2b2b8704c6f2960098460ff16815481106109535761095261365a565b5b9060005260206000200160009054906101000a900473ffffffffffffffffffffffffffffffffffffffff168360405161098d929190613804565b60405180910390a181846109a1919061382d565b9350505080806109b090613890565b91505061075d565b50600060096000815481106109d0576109cf61365a565b5b9060005260206000200160009054906101000a900473ffffffffffffffffffffffffffffffffffffffff1673ffffffffffffffffffffffffffffffffffffffff168284610a1d91906138ba565b604051610a2990612d03565b60006040518083038185875af1925050503d8060008114610a66576040519150601f19603f3d011682016040523d82523d6000602084013e610a6b565b606091505b5050905080610aaf576040517f08c379a0000000000000000000000000000000000000000000000000000000008152600401610aa690613960565b60405180910390fd5b7f41d3b03cd422dfb1d6cde62ed4c0e8e6693e2bcd92bd4e5f92b2b2b8704c6f296009600081548110610ae557610ae461365a565b5b9060005260206000200160009054906101000a900473ffffffffffffffffffffffffffffffffffffffff168385610b1c91906138ba565b604051610b2a929190613804565b60405180910390a1505050565b60007f80ac58cd000000000000000000000000000000000000000000000000000000007bffffffffffffffffffffffffffffffffffffffffffffffffffffffff1916827bffffffffffffffffffffffffffffffffffffffffffffffffffffffff19161480610c0257507f5b5e139f000000000000000000000000000000000000000000000000000000007bffffffffffffffffffffffffffffffffffffffffffffffffffffffff1916827bffffffffffffffffffffffffffffffffffffffffffffffffffffffff1916145b80610c125750610c118261208e565b5b9050919050565b606060008054610c28906139af565b80601f0160208091040260200160405190810160405280929190818152602001828054610c54906139af565b8015610ca15780601f10610c7657610100808354040283529160200191610ca1565b820191906000526020600020905b815481529060010190602001808311610c8457829003601f168201915b5050505050905090565b6000610cb6826120f8565b610cf5576040517f08c379a0000000000000000000000000000000000000000000000000000000008152600401610cec90613a53565b60405180910390fd5b6004600083815260200190815260200160002060009054906101000a900473ffffffffffffffffffffffffffffffffffffffff169050919050565b6000610d3b82610f9f565b90508073ffffffffffffffffffffffffffffffffffffffff168373ffffffffffffffffffffffffffffffffffffffff161415610dac576040517f08c379a0000000000000000000000000000000000000000000000000000000008152600401610da390613ae5565b60405180910390fd5b8073ffffffffffffffffffffffffffffffffffffffff16610dcb612164565b73ffffffffffffffffffffffffffffffffffffffff161480610dfa5750610df981610df4612164565b611cb1565b5b610e39576040517f08c379a0000000000000000000000000000000000000000000000000000000008152600401610e3090613b77565b60405180910390fd5b610e43838361216c565b505050565b610e59610e53612164565b82612225565b610e98576040517f08c379a0000000000000000000000000000000000000000000000000000000008152600401610e8f90613c09565b60405180910390fd5b610ea3838383612303565b505050565b6000600b6000838152602001908152602001600020549050919050565b6000600a60009054906101000a900461ffff16905090565b610ee5612164565b73ffffffffffffffffffffffffffffffffffffffff16610f036106d3565b73ffffffffffffffffffffffffffffffffffffffff1614610f59576040517f08c379a0000000000000000000000000000000000000000000000000000000008152600401610f5090613c75565b60405180910390fd5b6000610f65600761232a565b9050610f716007612338565b610f7b828261234e565b5050565b610f9a838383604051806020016040528060008152506117a2565b505050565b6000806002600084815260200190815260200160002060009054906101000a900473ffffffffffffffffffffffffffffffffffffffff169050600073ffffffffffffffffffffffffffffffffffffffff168173ffffffffffffffffffffffffffffffffffffffff161415611048576040517f08c379a000000000000000000000000000000000000000000000000000000000815260040161103f90613d07565b60405180910390fd5b80915050919050565b60008073ffffffffffffffffffffffffffffffffffffffff168273ffffffffffffffffffffffffffffffffffffffff1614156110c2576040517f08c379a00000000000000000000000000000000000000000000000000000000081526004016110b990613d99565b60405180910390fd5b600360008373ffffffffffffffffffffffffffffffffffffffff1673ffffffffffffffffffffffffffffffffffffffff168152602001908152602001600020549050919050565b611111612164565b73ffffffffffffffffffffffffffffffffffffffff1661112f6106d3565b73ffffffffffffffffffffffffffffffffffffffff1614611185576040517f08c379a000000000000000000000000000000000000000000000000000000000815260040161117c90613c75565b60405180910390fd5b61118f600061236c565b565b611199612164565b73ffffffffffffffffffffffffffffffffffffffff166111b76106d3565b73ffffffffffffffffffffffffffffffffffffffff161461120d576040517f08c379a000000000000000000000000000000000000000000000000000000000815260040161120490613c75565b60405180910390fd5b8051825114611251576040517f08c379a000000000000000000000000000000000000000000000000000000000815260040161124890613e05565b60405180910390fd5b6005825110611295576040517f08c379a000000000000000000000000000000000000000000000000000000000815260040161128c90613e71565b60405180910390fd5b60005b81518160ff16101561131d576101f4828260ff16815181106112bd576112bc61365a565b5b602002602001015161ffff16111561130a576040517f08c379a000000000000000000000000000000000000000000000000000000000815260040161130190613edd565b60405180910390fd5b808061131590613890565b915050611298565b5060005b6009805490508160ff1610156113d5576008600060098360ff168154811061134c5761134b61365a565b5b9060005260206000200160009054906101000a900473ffffffffffffffffffffffffffffffffffffffff1673ffffffffffffffffffffffffffffffffffffffff1673ffffffffffffffffffffffffffffffffffffffff16815260200190815260200160002060006101000a81549061ffff021916905580806113cd90613890565b915050611321565b506000600a60006101000a81548161ffff021916908361ffff16021790555060005b82518160ff16101561157357818160ff16815181106114195761141861365a565b5b602002602001015160086000858460ff168151811061143b5761143a61365a565b5b602002602001015173ffffffffffffffffffffffffffffffffffffffff1673ffffffffffffffffffffffffffffffffffffffff16815260200190815260200160002060006101000a81548161ffff021916908361ffff160217905550818160ff16815181106114ad576114ac61365a565b5b6020026020010151600a60008282829054906101000a900461ffff166114d39190613efd565b92506101000a81548161ffff021916908361ffff1602179055507fae62388c91a6f7c8885e4324cb99fe3b2254dc56088bf6d822f85acbcac54491838260ff16815181106115245761152361365a565b5b6020026020010151838360ff16815181106115425761154161365a565b5b6020026020010151604051611558929190613f35565b60405180910390a1808061156b90613890565b9150506113f7565b50816009908051906020019061158a929190612c2b565b505050565b60606001805461159e906139af565b80601f01602080910402602001604051908101604052809291908181526020018280546115ca906139af565b80156116175780601f106115ec57610100808354040283529160200191611617565b820191906000526020600020905b8154815290600101906020018083116115fa57829003601f168201915b5050505050905090565b611629612164565b73ffffffffffffffffffffffffffffffffffffffff168273ffffffffffffffffffffffffffffffffffffffff161415611697576040517f08c379a000000000000000000000000000000000000000000000000000000000815260040161168e90613faa565b60405180910390fd5b80600560006116a4612164565b73ffffffffffffffffffffffffffffffffffffffff1673ffffffffffffffffffffffffffffffffffffffff16815260200190815260200160002060008473ffffffffffffffffffffffffffffffffffffffff1673ffffffffffffffffffffffffffffffffffffffff16815260200190815260200160002060006101000a81548160ff0219169083151502179055508173ffffffffffffffffffffffffffffffffffffffff16611751612164565b73ffffffffffffffffffffffffffffffffffffffff167f17307eab39ab6107e8899845ad3d59bd9653f200f220920489ca2b5937696c31836040516117969190612e49565b60405180910390a35050565b6117b36117ad612164565b83612225565b6117f2576040517f08c379a00000000000000000000000000000000000000000000000000000000081526004016117e990613c09565b60405180910390fd5b6117fe84848484612432565b50505050565b806000600b6000838152602001908152602001600020541161185b576040517f08c379a000000000000000000000000000000000000000000000000000000000815260040161185290614016565b60405180910390fd5b600b6000838152602001908152602001600020543410156118b1576040517f08c379a00000000000000000000000000000000000000000000000000000000081526004016118a890614082565b60405180910390fd5b6118ba82610f9f565b73ffffffffffffffffffffffffffffffffffffffff163373ffffffffffffffffffffffffffffffffffffffff161415611928576040517f08c379a000000000000000000000000000000000000000000000000000000000815260040161191f90614114565b60405180910390fd5b7fffa8e4adef20403a71fedeb00a7d0c21f7c714855d9ac581923d2c44cc6f108082600b6000858152602001908152602001600020543361196886610f9f565b6040516119789493929190614134565b60405180910390a16000612710600a60009054906101000a900461ffff1661ffff16600b6000868152602001908152602001600020546119b891906136b8565b6119c29190613741565b90506119cd816106fd565b60006119d884610f9f565b73ffffffffffffffffffffffffffffffffffffffff1682600b600087815260200190815260200160002054611a0d91906138ba565b604051611a1990612d03565b60006040518083038185875af1925050503d8060008114611a56576040519150601f19603f3d011682016040523d82523d6000602084013e611a5b565b606091505b5050905080611a9f576040517f08c379a0000000000000000000000000000000000000000000000000000000008152600401611a96906141c5565b60405180910390fd5b7f3142af0db8f905e597ba98e4e8c51b7b3d93dfec0eb972118a1c8b2903d60c53611ac985610f9f565b83600b600088815260200190815260200160002054611ae891906138ba565b604051611af6929190613804565b60405180910390a16000600b60008681526020019081526020016000205434611b1f91906138ba565b1115611bf15760003373ffffffffffffffffffffffffffffffffffffffff16600b60008781526020019081526020016000205434611b5d91906138ba565b604051611b6990612d03565b60006040518083038185875af1925050503d8060008114611ba6576040519150601f19603f3d011682016040523d82523d6000602084013e611bab565b606091505b5050905080611bef576040517f08c379a0000000000000000000000000000000000000000000000000000000008152600401611be690614257565b60405180910390fd5b505b611c04611bfd85610f9f565b3386612303565b50505050565b6060611c15826120f8565b611c54576040517f08c379a0000000000000000000000000000000000000000000000000000000008152600401611c4b906142e9565b60405180910390fd5b6000611c5e61248e565b90506000815111611c7e5760405180602001604052806000815250611ca9565b80611c88846124a5565b604051602001611c99929190614345565b6040516020818303038152906040525b915050919050565b6000600560008473ffffffffffffffffffffffffffffffffffffffff1673ffffffffffffffffffffffffffffffffffffffff16815260200190815260200160002060008373ffffffffffffffffffffffffffffffffffffffff1673ffffffffffffffffffffffffffffffffffffffff16815260200190815260200160002060009054906101000a900460ff16905092915050565b6000600860008373ffffffffffffffffffffffffffffffffffffffff1673ffffffffffffffffffffffffffffffffffffffff16815260200190815260200160002060009054906101000a900461ffff169050919050565b80611da681610f9f565b73ffffffffffffffffffffffffffffffffffffffff163373ffffffffffffffffffffffffffffffffffffffff1614611e13576040517f08c379a0000000000000000000000000000000000000000000000000000000008152600401611e0a906143b5565b60405180910390fd5b816000600b60008381526020019081526020016000205411611e6a576040517f08c379a0000000000000000000000000000000000000000000000000000000008152600401611e6190614016565b60405180910390fd5b600b600084815260200190815260200160002060009055505050565b611e8e612164565b73ffffffffffffffffffffffffffffffffffffffff16611eac6106d3565b73ffffffffffffffffffffffffffffffffffffffff1614611f02576040517f08c379a0000000000000000000000000000000000000000000000000000000008152600401611ef990613c75565b60405180910390fd5b600073ffffffffffffffffffffffffffffffffffffffff168173ffffffffffffffffffffffffffffffffffffffff161415611f72576040517f08c379a0000000000000000000000000000000000000000000000000000000008152600401611f6990614447565b60405180910390fd5b611f7b8161236c565b50565b81611f8881610f9f565b73ffffffffffffffffffffffffffffffffffffffff163373ffffffffffffffffffffffffffffffffffffffff1614611ff5576040517f08c379a0000000000000000000000000000000000000000000000000000000008152600401611fec906143b5565b60405180910390fd5b60008211612038576040517f08c379a000000000000000000000000000000000000000000000000000000000815260040161202f906144b3565b60405180910390fd5b81600b6000858152602001908152602001600020819055507fd0ca477a045a99a0dcdc3d3bc74511633b83b6cc4517f1565beb39a3823e35f283836040516120819291906144d3565b60405180910390a1505050565b60007f01ffc9a7000000000000000000000000000000000000000000000000000000007bffffffffffffffffffffffffffffffffffffffffffffffffffffffff1916827bffffffffffffffffffffffffffffffffffffffffffffffffffffffff1916149050919050565b60008073ffffffffffffffffffffffffffffffffffffffff166002600084815260200190815260200160002060009054906101000a900473ffffffffffffffffffffffffffffffffffffffff1673ffffffffffffffffffffffffffffffffffffffff1614159050919050565b600033905090565b816004600083815260200190815260200160002060006101000a81548173ffffffffffffffffffffffffffffffffffffffff021916908373ffffffffffffffffffffffffffffffffffffffff160217905550808273ffffffffffffffffffffffffffffffffffffffff166121df83610f9f565b73ffffffffffffffffffffffffffffffffffffffff167f8c5be1e5ebec7d5bd14f71427d1e84f3dd0314c0f7b2291e5b200ac8c7c3b92560405160405180910390a45050565b6000612230826120f8565b61226f576040517f08c379a00000000000000000000000000000000000000000000000000000000081526004016122669061456e565b60405180910390fd5b600061227a83610f9f565b90508073ffffffffffffffffffffffffffffffffffffffff168473ffffffffffffffffffffffffffffffffffffffff1614806122e957508373ffffffffffffffffffffffffffffffffffffffff166122d184610cab565b73ffffffffffffffffffffffffffffffffffffffff16145b806122fa57506122f98185611cb1565b5b91505092915050565b61230e838383612606565b600b600082815260200190815260200160002060009055505050565b600081600001549050919050565b6001816000016000828254019250508190555050565b612368828260405180602001604052806000815250612862565b5050565b6000600660009054906101000a900473ffffffffffffffffffffffffffffffffffffffff16905081600660006101000a81548173ffffffffffffffffffffffffffffffffffffffff021916908373ffffffffffffffffffffffffffffffffffffffff1602179055508173ffffffffffffffffffffffffffffffffffffffff168173ffffffffffffffffffffffffffffffffffffffff167f8be0079c531659141344cd1fd0a4f28419497f9722a3daafe3b4186f6b6457e060405160405180910390a35050565b61243d848484612303565b612449848484846128bd565b612488576040517f08c379a000000000000000000000000000000000000000000000000000000000815260040161247f90614600565b60405180910390fd5b50505050565b606060405180602001604052806000815250905090565b606060008214156124ed576040518060400160405280600181526020017f30000000000000000000000000000000000000000000000000000000000000008152509050612601565b600082905060005b6000821461251f57808061250890614620565b915050600a826125189190613741565b91506124f5565b60008167ffffffffffffffff81111561253b5761253a613120565b5b6040519080825280601f01601f19166020018201604052801561256d5781602001600182028036833780820191505090505b5090505b600085146125fa5760018261258691906138ba565b9150600a856125959190614669565b60306125a1919061382d565b60f81b8183815181106125b7576125b661365a565b5b60200101907effffffffffffffffffffffffffffffffffffffffffffffffffffffffffffff1916908160001a905350600a856125f39190613741565b9450612571565b8093505050505b919050565b8273ffffffffffffffffffffffffffffffffffffffff1661262682610f9f565b73ffffffffffffffffffffffffffffffffffffffff161461267c576040517f08c379a00000000000000000000000000000000000000000000000000000000081526004016126739061470c565b60405180910390fd5b600073ffffffffffffffffffffffffffffffffffffffff168273ffffffffffffffffffffffffffffffffffffffff1614156126ec576040517f08c379a00000000000000000000000000000000000000000000000000000000081526004016126e39061479e565b60405180910390fd5b6126f7838383612a45565b61270260008261216c565b6001600360008573ffffffffffffffffffffffffffffffffffffffff1673ffffffffffffffffffffffffffffffffffffffff168152602001908152602001600020600082825461275291906138ba565b925050819055506001600360008473ffffffffffffffffffffffffffffffffffffffff1673ffffffffffffffffffffffffffffffffffffffff16815260200190815260200160002060008282546127a9919061382d565b92505081905550816002600083815260200190815260200160002060006101000a81548173ffffffffffffffffffffffffffffffffffffffff021916908373ffffffffffffffffffffffffffffffffffffffff160217905550808273ffffffffffffffffffffffffffffffffffffffff168473ffffffffffffffffffffffffffffffffffffffff167fddf252ad1be2c89b69c2b068fc378daa952ba7f163c4a11628f55a4df523b3ef60405160405180910390a4505050565b61286c8383612a4a565b61287960008484846128bd565b6128b8576040517f08c379a00000000000000000000000000000000000000000000000000000000081526004016128af90614600565b60405180910390fd5b505050565b60006128de8473ffffffffffffffffffffffffffffffffffffffff16612c18565b15612a38578373ffffffffffffffffffffffffffffffffffffffff1663150b7a02612907612164565b8786866040518563ffffffff1660e01b81526004016129299493929190614813565b6020604051808303816000875af192505050801561296557506040513d601f19601f820116820180604052508101906129629190614874565b60015b6129e8573d8060008114612995576040519150601f19603f3d011682016040523d82523d6000602084013e61299a565b606091505b506000815114156129e0576040517f08c379a00000000000000000000000000000000000000000000000000000000081526004016129d790614600565b60405180910390fd5b805181602001fd5b63150b7a0260e01b7bffffffffffffffffffffffffffffffffffffffffffffffffffffffff1916817bffffffffffffffffffffffffffffffffffffffffffffffffffffffff191614915050612a3d565b600190505b949350505050565b505050565b600073ffffffffffffffffffffffffffffffffffffffff168273ffffffffffffffffffffffffffffffffffffffff161415612aba576040517f08c379a0000000000000000000000000000000000000000000000000000000008152600401612ab1906148ed565b60405180910390fd5b612ac3816120f8565b15612b03576040517f08c379a0000000000000000000000000000000000000000000000000000000008152600401612afa90614959565b60405180910390fd5b612b0f60008383612a45565b6001600360008473ffffffffffffffffffffffffffffffffffffffff1673ffffffffffffffffffffffffffffffffffffffff1681526020019081526020016000206000828254612b5f919061382d565b92505081905550816002600083815260200190815260200160002060006101000a81548173ffffffffffffffffffffffffffffffffffffffff021916908373ffffffffffffffffffffffffffffffffffffffff160217905550808273ffffffffffffffffffffffffffffffffffffffff16600073ffffffffffffffffffffffffffffffffffffffff167fddf252ad1be2c89b69c2b068fc378daa952ba7f163c4a11628f55a4df523b3ef60405160405180910390a45050565b600080823b905060008111915050919050565b828054828255906000526020600020908101928215612ca4579160200282015b82811115612ca35782518260006101000a81548173ffffffffffffffffffffffffffffffffffffffff021916908373ffffffffffffffffffffffffffffffffffffffff16021790555091602001919060010190612c4b565b5b509050612cb19190612cb5565b5090565b5b80821115612cce576000816000905550600101612cb6565b5090565b600081905092915050565b50565b6000612ced600083612cd2565b9150612cf882612cdd565b600082019050919050565b6000612d0e82612ce0565b9150819050919050565b600082825260208201905092915050565b7f70726f626c656d20706179696e6720746865206f776e65720000000000000000600082015250565b6000612d5f601883612d18565b9150612d6a82612d29565b602082019050919050565b60006020820190508181036000830152612d8e81612d52565b9050919050565b6000604051905090565b600080fd5b600080fd5b60007fffffffff0000000000000000000000000000000000000000000000000000000082169050919050565b612dde81612da9565b8114612de957600080fd5b50565b600081359050612dfb81612dd5565b92915050565b600060208284031215612e1757612e16612d9f565b5b6000612e2584828501612dec565b91505092915050565b60008115159050919050565b612e4381612e2e565b82525050565b6000602082019050612e5e6000830184612e3a565b92915050565b600081519050919050565b60005b83811015612e8d578082015181840152602081019050612e72565b83811115612e9c576000848401525b50505050565b6000601f19601f8301169050919050565b6000612ebe82612e64565b612ec88185612d18565b9350612ed8818560208601612e6f565b612ee181612ea2565b840191505092915050565b60006020820190508181036000830152612f068184612eb3565b905092915050565b6000819050919050565b612f2181612f0e565b8114612f2c57600080fd5b50565b600081359050612f3e81612f18565b92915050565b600060208284031215612f5a57612f59612d9f565b5b6000612f6884828501612f2f565b91505092915050565b600073ffffffffffffffffffffffffffffffffffffffff82169050919050565b6000612f9c82612f71565b9050919050565b612fac81612f91565b82525050565b6000602082019050612fc76000830184612fa3565b92915050565b612fd681612f91565b8114612fe157600080fd5b50565b600081359050612ff381612fcd565b92915050565b600080604083850312156130105761300f612d9f565b5b600061301e85828601612fe4565b925050602061302f85828601612f2f565b9150509250929050565b60008060006060848603121561305257613051612d9f565b5b600061306086828701612fe4565b935050602061307186828701612fe4565b925050604061308286828701612f2f565b9150509250925092565b61309581612f0e565b82525050565b60006020820190506130b0600083018461308c565b92915050565b600061ffff82169050919050565b6130cd816130b6565b82525050565b60006020820190506130e860008301846130c4565b92915050565b60006020828403121561310457613103612d9f565b5b600061311284828501612fe4565b91505092915050565b600080fd5b7f4e487b7100000000000000000000000000000000000000000000000000000000600052604160045260246000fd5b61315882612ea2565b810181811067ffffffffffffffff8211171561317757613176613120565b5b80604052505050565b600061318a612d95565b9050613196828261314f565b919050565b600067ffffffffffffffff8211156131b6576131b5613120565b5b602082029050602081019050919050565b600080fd5b60006131df6131da8461319b565b613180565b90508083825260208201905060208402830185811115613202576132016131c7565b5b835b8181101561322b57806132178882612fe4565b845260208401935050602081019050613204565b5050509392505050565b600082601f83011261324a5761324961311b565b5b813561325a8482602086016131cc565b91505092915050565b600067ffffffffffffffff82111561327e5761327d613120565b5b602082029050602081019050919050565b613298816130b6565b81146132a357600080fd5b50565b6000813590506132b58161328f565b92915050565b60006132ce6132c984613263565b613180565b905080838252602082019050602084028301858111156132f1576132f06131c7565b5b835b8181101561331a578061330688826132a6565b8452602084019350506020810190506132f3565b5050509392505050565b600082601f8301126133395761333861311b565b5b81356133498482602086016132bb565b91505092915050565b6000806040838503121561336957613368612d9f565b5b600083013567ffffffffffffffff81111561338757613386612da4565b5b61339385828601613235565b925050602083013567ffffffffffffffff8111156133b4576133b3612da4565b5b6133c085828601613324565b9150509250929050565b6133d381612e2e565b81146133de57600080fd5b50565b6000813590506133f0816133ca565b92915050565b6000806040838503121561340d5761340c612d9f565b5b600061341b85828601612fe4565b925050602061342c858286016133e1565b9150509250929050565b600080fd5b600067ffffffffffffffff82111561345657613455613120565b5b61345f82612ea2565b9050602081019050919050565b82818337600083830152505050565b600061348e6134898461343b565b613180565b9050828152602081018484840111156134aa576134a9613436565b5b6134b584828561346c565b509392505050565b600082601f8301126134d2576134d161311b565b5b81356134e284826020860161347b565b91505092915050565b6000806000806080858703121561350557613504612d9f565b5b600061351387828801612fe4565b945050602061352487828801612fe4565b935050604061353587828801612f2f565b925050606085013567ffffffffffffffff81111561355657613555612da4565b5b613562878288016134bd565b91505092959194509250565b6000806040838503121561358557613584612d9f565b5b600061359385828601612fe4565b92505060206135a485828601612fe4565b9150509250929050565b600080604083850312156135c5576135c4612d9f565b5b60006135d385828601612f2f565b92505060206135e485828601612f2f565b9150509250929050565b7f6e6f2063726561746f7273207365740000000000000000000000000000000000600082015250565b6000613624600f83612d18565b915061362f826135ee565b602082019050919050565b6000602082019050818103600083015261365381613617565b9050919050565b7f4e487b7100000000000000000000000000000000000000000000000000000000600052603260045260246000fd5b7f4e487b7100000000000000000000000000000000000000000000000000000000600052601160045260246000fd5b60006136c382612f0e565b91506136ce83612f0e565b9250817fffffffffffffffffffffffffffffffffffffffffffffffffffffffffffffffff048311821515161561370757613706613689565b5b828202905092915050565b7f4e487b7100000000000000000000000000000000000000000000000000000000600052601260045260246000fd5b600061374c82612f0e565b915061375783612f0e565b92508261376757613766613712565b5b828204905092915050565b7f43726561746f722072656a65637465642045544820726f79616c74792074726160008201527f6e73666572000000000000000000000000000000000000000000000000000000602082015250565b60006137ce602583612d18565b91506137d982613772565b604082019050919050565b600060208201905081810360008301526137fd816137c1565b9050919050565b60006040820190506138196000830185612fa3565b613826602083018461308c565b9392505050565b600061383882612f0e565b915061384383612f0e565b9250827fffffffffffffffffffffffffffffffffffffffffffffffffffffffffffffffff0382111561387857613877613689565b5b828201905092915050565b600060ff82169050919050565b600061389b82613883565b915060ff8214156138af576138ae613689565b5b600182019050919050565b60006138c582612f0e565b91506138d083612f0e565b9250828210156138e3576138e2613689565b5b828203905092915050565b7f46697273742043726561746f722072656a65637465642045544820726f79616c60008201527f7479207472616e73666572000000000000000000000000000000000000000000602082015250565b600061394a602b83612d18565b9150613955826138ee565b604082019050919050565b600060208201905081810360008301526139798161393d565b9050919050565b7f4e487b7100000000000000000000000000000000000000000000000000000000600052602260045260246000fd5b600060028204905060018216806139c757607f821691505b602082108114156139db576139da613980565b5b50919050565b7f4552433732313a20617070726f76656420717565727920666f72206e6f6e657860008201527f697374656e7420746f6b656e0000000000000000000000000000000000000000602082015250565b6000613a3d602c83612d18565b9150613a48826139e1565b604082019050919050565b60006020820190508181036000830152613a6c81613a30565b9050919050565b7f4552433732313a20617070726f76616c20746f2063757272656e74206f776e6560008201527f7200000000000000000000000000000000000000000000000000000000000000602082015250565b6000613acf602183612d18565b9150613ada82613a73565b604082019050919050565b60006020820190508181036000830152613afe81613ac2565b9050919050565b7f4552433732313a20617070726f76652063616c6c6572206973206e6f74206f7760008201527f6e6572206e6f7220617070726f76656420666f7220616c6c0000000000000000602082015250565b6000613b61603883612d18565b9150613b6c82613b05565b604082019050919050565b60006020820190508181036000830152613b9081613b54565b9050919050565b7f4552433732313a207472616e736665722063616c6c6572206973206e6f74206f60008201527f776e6572206e6f7220617070726f766564000000000000000000000000000000602082015250565b6000613bf3603183612d18565b9150613bfe82613b97565b604082019050919050565b60006020820190508181036000830152613c2281613be6565b9050919050565b7f4f776e61626c653a2063616c6c6572206973206e6f7420746865206f776e6572600082015250565b6000613c5f602083612d18565b9150613c6a82613c29565b602082019050919050565b60006020820190508181036000830152613c8e81613c52565b9050919050565b7f4552433732313a206f776e657220717565727920666f72206e6f6e657869737460008201527f656e7420746f6b656e0000000000000000000000000000000000000000000000602082015250565b6000613cf1602983612d18565b9150613cfc82613c95565b604082019050919050565b60006020820190508181036000830152613d2081613ce4565b9050919050565b7f4552433732313a2062616c616e636520717565727920666f7220746865207a6560008201527f726f206164647265737300000000000000000000000000000000000000000000602082015250565b6000613d83602a83612d18565b9150613d8e82613d27565b604082019050919050565b60006020820190508181036000830152613db281613d76565b9050919050565b7f496e636f7272656374206c656e67746800000000000000000000000000000000600082015250565b6000613def601083612d18565b9150613dfa82613db9565b602082019050919050565b60006020820190508181036000830152613e1e81613de2565b9050919050565b7f4d617820352063726561746f727320616c6c6f77656400000000000000000000600082015250565b6000613e5b601683612d18565b9150613e6682613e25565b602082019050919050565b60006020820190508181036000830152613e8a81613e4e565b9050919050565b7f53696e676c652063726561746f722063616e20676574206d6178203525000000600082015250565b6000613ec7601d83612d18565b9150613ed282613e91565b602082019050919050565b60006020820190508181036000830152613ef681613eba565b9050919050565b6000613f08826130b6565b9150613f13836130b6565b92508261ffff03821115613f2a57613f29613689565b5b828201905092915050565b6000604082019050613f4a6000830185612fa3565b613f5760208301846130c4565b9392505050565b7f4552433732313a20617070726f766520746f2063616c6c657200000000000000600082015250565b6000613f94601983612d18565b9150613f9f82613f5e565b602082019050919050565b60006020820190508181036000830152613fc381613f87565b9050919050565b7f6f6666657220646f6573206e6f74206578697374000000000000000000000000600082015250565b6000614000601483612d18565b915061400b82613fca565b602082019050919050565b6000602082019050818103600083015261402f81613ff3565b9050919050565b7f6e6f7420656e6f75676820617373657473207061696400000000000000000000600082015250565b600061406c601683612d18565b915061407782614036565b602082019050919050565b6000602082019050818103600083015261409b8161405f565b9050919050565b7f627579657220616e642073656c6c6572206d757374206265206469666665726560008201527f6e74000000000000000000000000000000000000000000000000000000000000602082015250565b60006140fe602283612d18565b9150614109826140a2565b604082019050919050565b6000602082019050818103600083015261412d816140f1565b9050919050565b6000608082019050614149600083018761308c565b614156602083018661308c565b6141636040830185612fa3565b6141706060830184612fa3565b95945050505050565b7f4f776e65722072656a6563746564204554482073656c6c207472616e73666572600082015250565b60006141af602083612d18565b91506141ba82614179565b602082019050919050565b600060208201905081810360008301526141de816141a2565b9050919050565b7f42757965722072656a6563746564204554482072657475726e207472616e736660008201527f6572000000000000000000000000000000000000000000000000000000000000602082015250565b6000614241602283612d18565b915061424c826141e5565b604082019050919050565b6000602082019050818103600083015261427081614234565b9050919050565b7f4552433732314d657461646174613a2055524920717565727920666f72206e6f60008201527f6e6578697374656e7420746f6b656e0000000000000000000000000000000000602082015250565b60006142d3602f83612d18565b91506142de82614277565b604082019050919050565b60006020820190508181036000830152614302816142c6565b9050919050565b600081905092915050565b600061431f82612e64565b6143298185614309565b9350614339818560208601612e6f565b80840191505092915050565b60006143518285614314565b915061435d8284614314565b91508190509392505050565b7f53656e646572206973206e6f74206f776e6572206f662074686520746f6b656e600082015250565b600061439f602083612d18565b91506143aa82614369565b602082019050919050565b600060208201905081810360008301526143ce81614392565b9050919050565b7f4f776e61626c653a206e6577206f776e657220697320746865207a65726f206160008201527f6464726573730000000000000000000000000000000000000000000000000000602082015250565b6000614431602683612d18565b915061443c826143d5565b604082019050919050565b6000602082019050818103600083015261446081614424565b9050919050565b7f73656c6c5072696365206d757374206265203e20300000000000000000000000600082015250565b600061449d601583612d18565b91506144a882614467565b602082019050919050565b600060208201905081810360008301526144cc81614490565b9050919050565b60006040820190506144e8600083018561308c565b6144f5602083018461308c565b9392505050565b7f4552433732313a206f70657261746f7220717565727920666f72206e6f6e657860008201527f697374656e7420746f6b656e0000000000000000000000000000000000000000602082015250565b6000614558602c83612d18565b9150614563826144fc565b604082019050919050565b600060208201905081810360008301526145878161454b565b9050919050565b7f4552433732313a207472616e7366657220746f206e6f6e20455243373231526560008201527f63656976657220696d706c656d656e7465720000000000000000000000000000602082015250565b60006145ea603283612d18565b91506145f58261458e565b604082019050919050565b60006020820190508181036000830152614619816145dd565b9050919050565b600061462b82612f0e565b91507fffffffffffffffffffffffffffffffffffffffffffffffffffffffffffffffff82141561465e5761465d613689565b5b600182019050919050565b600061467482612f0e565b915061467f83612f0e565b92508261468f5761468e613712565b5b828206905092915050565b7f4552433732313a207472616e73666572206f6620746f6b656e2074686174206960008201527f73206e6f74206f776e0000000000000000000000000000000000000000000000602082015250565b60006146f6602983612d18565b91506147018261469a565b604082019050919050565b60006020820190508181036000830152614725816146e9565b9050919050565b7f4552433732313a207472616e7366657220746f20746865207a65726f2061646460008201527f7265737300000000000000000000000000000000000000000000000000000000602082015250565b6000614788602483612d18565b91506147938261472c565b604082019050919050565b600060208201905081810360008301526147b78161477b565b9050919050565b600081519050919050565b600082825260208201905092915050565b60006147e5826147be565b6147ef81856147c9565b93506147ff818560208601612e6f565b61480881612ea2565b840191505092915050565b60006080820190506148286000830187612fa3565b6148356020830186612fa3565b614842604083018561308c565b818103606083015261485481846147da565b905095945050505050565b60008151905061486e81612dd5565b92915050565b60006020828403121561488a57614889612d9f565b5b60006148988482850161485f565b91505092915050565b7f4552433732313a206d696e7420746f20746865207a65726f2061646472657373600082015250565b60006148d7602083612d18565b91506148e2826148a1565b602082019050919050565b60006020820190508181036000830152614906816148ca565b9050919050565b7f4552433732313a20746f6b656e20616c7265616479206d696e74656400000000600082015250565b6000614943601c83612d18565b915061494e8261490d565b602082019050919050565b6000602082019050818103600083015261497281614936565b905091905056fea26469706673582212200797f36b1128bacb4e0f65db3edad95bb995e833e680c234f7d159b43a94344364736f6c634300080a0033",
  "immutableReferences": {},
  "source": "// SPDX-License-Identifier: MIT\npragma solidity 0.8.10;\n\nimport \"openzeppelin-solidity/contracts/token/ERC721/ERC721.sol\";\nimport \"openzeppelin-solidity/contracts/access/Ownable.sol\";\nimport \"openzeppelin-solidity/contracts/utils/Counters.sol\";\n\ncontract MockNFT is ERC721, Ownable {\n    \n    using Counters for Counters.Counter;\n\n    Counters.Counter private _tokenIdCounter;\n\n    // creators obtaining shares, key: creator address, value: share in basis points (100=1%)\n    mapping(address => uint16) private _royalties;\n    address[] private _creators;\n    uint16 private _royaltiesSum;\n\n    // token offers, key: tokenId, value: price for which the token is offered\n    mapping(uint256 => uint256) private _tokenOffers;\n\n    event SetRoyalty(address creator, uint16 share);\n    event OfferCreated(uint256 tokenId, uint256 sellPrice);\n    event OfferUpdated(uint256 tokenId, uint256 sellPrice);\n    event CancelOfer(uint256 tokenId);\n    event OfferAccepted(uint256 tokenId, uint256 price, address buyer, address seller);\n    event RyoaltyPayment(address creator, uint256 roaylty);\n    event OwnerPayment(address owner, uint256 amount);\n\n    event Test(uint256 msg);\n\n    modifier onlyTokenOwner(uint256 tokenId) {\n        require(msg.sender == ownerOf(tokenId), \"Sender is not owner of the token\");\n        _;\n    }\n\n    modifier offerExists(uint256 tokenId) {\n        require(_tokenOffers[tokenId] > 0, \"offer does not exist\");\n        _;\n    }\n\n    constructor() ERC721(\"MockNFT\", \"MOCK\") {}\n\n    receive() external payable {\n        if (_royaltiesSum == 0) {\n            (bool ownerPaid, /* bytes memory data */) = payable(owner()).call{value: msg.value}(\"\");\n            require(ownerPaid, \"problem paying the owner\");\n        } else {\n            rewardCreators(msg.value);\n        }\n    }\n\n    function safeMint(address to) public onlyOwner {\n        uint256 tokenId = _tokenIdCounter.current();\n        _tokenIdCounter.increment();\n        _safeMint(to, tokenId);\n    }\n\n    function setRoyalties(address[] memory creators, uint16[] memory royalties) public onlyOwner {\n        require(creators.length == royalties.length, \"Incorrect length\");\n        require(creators.length< 5, \"Max 5 creators allowed\");\n        for (uint8 i =0; i < royalties.length; i++) {\n            require(royalties[i] <= 500, \"Single creator can get max 5%\");\n        }\n\n        // remove current shares\n        for (uint8 i=0; i < _creators.length; i++) {\n            delete _royalties[_creators[i]];\n        }\n\n        // create new shares\n        _royaltiesSum = 0;\n        for (uint8 i=0; i < creators.length; i++) {\n            _royalties[creators[i]] = royalties[i];\n            _royaltiesSum += royalties[i];\n            emit SetRoyalty(creators[i], royalties[i]);\n        }\n        _creators = creators;\n    }\n\n    function getRoyalty(address creator) public view returns (uint16) {\n        return _royalties[creator];\n    }\n\n    function getRoyalties() public view returns (uint16) {\n        return _royaltiesSum;\n    }\n\n    function setOfferPrice(uint256 tokenId, uint256 sellPrice) public onlyTokenOwner(tokenId) {\n        require(sellPrice > 0, \"sellPrice must be > 0\");\n            _tokenOffers[tokenId]=sellPrice;\n            emit OfferCreated(tokenId, sellPrice);\n    }\n\n    function getOfferPrice(uint256 tokenId) public view returns(uint256) {\n        return _tokenOffers[tokenId];\n    }\n\n    function cancelOffer(uint tokenId) public onlyTokenOwner(tokenId) offerExists(tokenId) {\n        delete _tokenOffers[tokenId];\n    }\n\n    function acceptOffer(uint256 tokenId) public payable offerExists(tokenId) {\n        require(msg.value >= _tokenOffers[tokenId], \"not enough assets paid\");\n        require(msg.sender != ownerOf(tokenId), \"buyer and seller must be different\");\n        emit OfferAccepted(tokenId, _tokenOffers[tokenId], msg.sender, ownerOf(tokenId));\n\n        // pay creators\n        uint256 payToCreators = _tokenOffers[tokenId] * _royaltiesSum / 10000;\n        rewardCreators(payToCreators);\n        \n        // pay owners\n        (bool ownerPaid, /* bytes memory data */) = payable(ownerOf(tokenId)).call{value: _tokenOffers[tokenId] - payToCreators}(\"\");\n        require(ownerPaid, \"Owner rejected ETH sell transfer\");\n        emit OwnerPayment(ownerOf(tokenId), _tokenOffers[tokenId] - payToCreators);\n\n        // return overpaid value\n        if (msg.value - _tokenOffers[tokenId] > 0) {\n            (bool buyerReturned, /* bytes memory data */) = payable(msg.sender).call{value: msg.value - _tokenOffers[tokenId]}(\"\");\n            require(buyerReturned, \"Buyer rejected ETH return transfer\");\n        }\n\n        // transfer token\n        _transfer(ownerOf(tokenId), msg.sender, tokenId);\n    }\n\n    function rewardCreators(uint256 reward) public payable {\n        require(_royaltiesSum != 0, \"no creators set\");\n\n        uint256 paid = 0;\n        for (uint8 i = 1; i < _creators.length; i++) { //\n            uint256 toPay = reward * _royalties[_creators[i]] / _royaltiesSum;\n            (bool creatorPaid, /* bytes memory data */) = payable(_creators[i]).call{value: toPay}(\"\");\n            require(creatorPaid, \"Creator rejected ETH royalty transfer\");\n            emit RyoaltyPayment(_creators[i], toPay);\n            paid += toPay;\n        }\n\n        (bool firstCreatorPaid, /* bytes memory data */) = payable(_creators[0]).call{value: reward - paid}(\"\");\n        require(firstCreatorPaid, \"First Creator rejected ETH royalty transfer\");\n        emit RyoaltyPayment(_creators[0], reward - paid);\n    }\n\n    function _transfer(address from,address to,uint256 tokenId) internal override {\n        super._transfer(from, to, tokenId);\n        delete _tokenOffers[tokenId];\n    } \n\n}",
  "sourcePath": "/Users/jlochman/Documents/Consensys/blockchain-developer-bootcamp-final-project/contracts/MockNFT.sol",
  "compiler": {
    "name": "solc",
    "version": "0.8.10+commit.fc410830.Emscripten.clang"
  },
  "schemaVersion": "3.4.3",
  "updatedAt": "2021-11-23T19:27:52.729Z",
  "networkType": "ethereum",
  "devdoc": {
    "kind": "dev",
    "methods": {
      "approve(address,uint256)": {
        "details": "See {IERC721-approve}."
      },
      "balanceOf(address)": {
        "details": "See {IERC721-balanceOf}."
      },
      "getApproved(uint256)": {
        "details": "See {IERC721-getApproved}."
      },
      "isApprovedForAll(address,address)": {
        "details": "See {IERC721-isApprovedForAll}."
      },
      "name()": {
        "details": "See {IERC721Metadata-name}."
      },
      "owner()": {
        "details": "Returns the address of the current owner."
      },
      "ownerOf(uint256)": {
        "details": "See {IERC721-ownerOf}."
      },
      "renounceOwnership()": {
        "details": "Leaves the contract without owner. It will not be possible to call `onlyOwner` functions anymore. Can only be called by the current owner. NOTE: Renouncing ownership will leave the contract without an owner, thereby removing any functionality that is only available to the owner."
      },
      "safeTransferFrom(address,address,uint256)": {
        "details": "See {IERC721-safeTransferFrom}."
      },
      "safeTransferFrom(address,address,uint256,bytes)": {
        "details": "See {IERC721-safeTransferFrom}."
      },
      "setApprovalForAll(address,bool)": {
        "details": "See {IERC721-setApprovalForAll}."
      },
      "supportsInterface(bytes4)": {
        "details": "See {IERC165-supportsInterface}."
      },
      "symbol()": {
        "details": "See {IERC721Metadata-symbol}."
      },
      "tokenURI(uint256)": {
        "details": "See {IERC721Metadata-tokenURI}."
      },
      "transferFrom(address,address,uint256)": {
        "details": "See {IERC721-transferFrom}."
      },
      "transferOwnership(address)": {
        "details": "Transfers ownership of the contract to a new account (`newOwner`). Can only be called by the current owner."
      }
    },
    "version": 1
  },
  "userdoc": {
    "kind": "user",
    "methods": {},
    "version": 1
  }
}